{
  "contractName": "SpectreERC20Token",
  "abi": [
    {
      "inputs": [],
      "stateMutability": "nonpayable",
      "type": "constructor"
    },
    {
      "anonymous": false,
      "inputs": [
        {
          "indexed": true,
          "internalType": "address",
          "name": "owner",
          "type": "address"
        },
        {
          "indexed": true,
          "internalType": "address",
          "name": "spender",
          "type": "address"
        },
        {
          "indexed": false,
          "internalType": "uint256",
          "name": "value",
          "type": "uint256"
        }
      ],
      "name": "Approval",
      "type": "event"
    },
    {
      "anonymous": false,
      "inputs": [
        {
          "indexed": true,
          "internalType": "address",
          "name": "previousOwner",
          "type": "address"
        },
        {
          "indexed": true,
          "internalType": "address",
          "name": "newOwner",
          "type": "address"
        }
      ],
      "name": "OwnershipTransferred",
      "type": "event"
    },
    {
      "anonymous": false,
      "inputs": [
        {
          "indexed": true,
          "internalType": "address",
          "name": "from",
          "type": "address"
        },
        {
          "indexed": true,
          "internalType": "address",
          "name": "to",
          "type": "address"
        },
        {
          "indexed": false,
          "internalType": "uint256",
          "name": "value",
          "type": "uint256"
        }
      ],
      "name": "Transfer",
      "type": "event"
    },
    {
      "inputs": [],
      "name": "DOMAIN_SEPARATOR",
      "outputs": [
        {
          "internalType": "bytes32",
          "name": "",
          "type": "bytes32"
        }
      ],
      "stateMutability": "view",
      "type": "function"
    },
    {
      "inputs": [],
      "name": "PERMIT_TYPEHASH",
      "outputs": [
        {
          "internalType": "bytes32",
          "name": "",
          "type": "bytes32"
        }
      ],
      "stateMutability": "view",
      "type": "function"
    },
    {
      "inputs": [
        {
          "internalType": "address",
          "name": "owner",
          "type": "address"
        },
        {
          "internalType": "address",
          "name": "spender",
          "type": "address"
        }
      ],
      "name": "allowance",
      "outputs": [
        {
          "internalType": "uint256",
          "name": "",
          "type": "uint256"
        }
      ],
      "stateMutability": "view",
      "type": "function"
    },
    {
      "inputs": [
        {
          "internalType": "address",
          "name": "spender",
          "type": "address"
        },
        {
          "internalType": "uint256",
          "name": "amount",
          "type": "uint256"
        }
      ],
      "name": "approve",
      "outputs": [
        {
          "internalType": "bool",
          "name": "",
          "type": "bool"
        }
      ],
      "stateMutability": "nonpayable",
      "type": "function"
    },
    {
      "inputs": [
        {
          "internalType": "address",
          "name": "account",
          "type": "address"
        }
      ],
      "name": "balanceOf",
      "outputs": [
        {
          "internalType": "uint256",
          "name": "",
          "type": "uint256"
        }
      ],
      "stateMutability": "view",
      "type": "function"
    },
    {
      "inputs": [],
      "name": "decimals",
      "outputs": [
        {
          "internalType": "uint8",
          "name": "",
          "type": "uint8"
        }
      ],
      "stateMutability": "view",
      "type": "function"
    },
    {
      "inputs": [
        {
          "internalType": "address",
          "name": "spender",
          "type": "address"
        },
        {
          "internalType": "uint256",
          "name": "subtractedValue",
          "type": "uint256"
        }
      ],
      "name": "decreaseAllowance",
      "outputs": [
        {
          "internalType": "bool",
          "name": "",
          "type": "bool"
        }
      ],
      "stateMutability": "nonpayable",
      "type": "function"
    },
    {
      "inputs": [
        {
          "internalType": "address",
          "name": "spender",
          "type": "address"
        },
        {
          "internalType": "uint256",
          "name": "addedValue",
          "type": "uint256"
        }
      ],
      "name": "increaseAllowance",
      "outputs": [
        {
          "internalType": "bool",
          "name": "",
          "type": "bool"
        }
      ],
      "stateMutability": "nonpayable",
      "type": "function"
    },
    {
      "inputs": [],
      "name": "name",
      "outputs": [
        {
          "internalType": "string",
          "name": "",
          "type": "string"
        }
      ],
      "stateMutability": "view",
      "type": "function"
    },
    {
      "inputs": [
        {
          "internalType": "address",
          "name": "owner",
          "type": "address"
        }
      ],
      "name": "nonces",
      "outputs": [
        {
          "internalType": "uint256",
          "name": "",
          "type": "uint256"
        }
      ],
      "stateMutability": "view",
      "type": "function"
    },
    {
      "inputs": [],
      "name": "owner",
      "outputs": [
        {
          "internalType": "address",
          "name": "",
          "type": "address"
        }
      ],
      "stateMutability": "view",
      "type": "function"
    },
    {
      "inputs": [
        {
          "internalType": "address",
          "name": "owner",
          "type": "address"
        },
        {
          "internalType": "address",
          "name": "spender",
          "type": "address"
        },
        {
          "internalType": "uint256",
          "name": "amount",
          "type": "uint256"
        },
        {
          "internalType": "uint256",
          "name": "deadline",
          "type": "uint256"
        },
        {
          "internalType": "uint8",
          "name": "v",
          "type": "uint8"
        },
        {
          "internalType": "bytes32",
          "name": "r",
          "type": "bytes32"
        },
        {
          "internalType": "bytes32",
          "name": "s",
          "type": "bytes32"
        }
      ],
      "name": "permit",
      "outputs": [],
      "stateMutability": "nonpayable",
      "type": "function"
    },
    {
      "inputs": [],
      "name": "renounceOwnership",
      "outputs": [],
      "stateMutability": "nonpayable",
      "type": "function"
    },
    {
      "inputs": [
        {
          "internalType": "address",
          "name": "vault_",
          "type": "address"
        }
      ],
      "name": "setVault",
      "outputs": [
        {
          "internalType": "bool",
          "name": "",
          "type": "bool"
        }
      ],
      "stateMutability": "nonpayable",
      "type": "function"
    },
    {
      "inputs": [],
      "name": "symbol",
      "outputs": [
        {
          "internalType": "string",
          "name": "",
          "type": "string"
        }
      ],
      "stateMutability": "view",
      "type": "function"
    },
    {
      "inputs": [],
      "name": "totalSupply",
      "outputs": [
        {
          "internalType": "uint256",
          "name": "",
          "type": "uint256"
        }
      ],
      "stateMutability": "view",
      "type": "function"
    },
    {
      "inputs": [
        {
          "internalType": "address",
          "name": "recipient",
          "type": "address"
        },
        {
          "internalType": "uint256",
          "name": "amount",
          "type": "uint256"
        }
      ],
      "name": "transfer",
      "outputs": [
        {
          "internalType": "bool",
          "name": "",
          "type": "bool"
        }
      ],
      "stateMutability": "nonpayable",
      "type": "function"
    },
    {
      "inputs": [
        {
          "internalType": "address",
          "name": "sender",
          "type": "address"
        },
        {
          "internalType": "address",
          "name": "recipient",
          "type": "address"
        },
        {
          "internalType": "uint256",
          "name": "amount",
          "type": "uint256"
        }
      ],
      "name": "transferFrom",
      "outputs": [
        {
          "internalType": "bool",
          "name": "",
          "type": "bool"
        }
      ],
      "stateMutability": "nonpayable",
      "type": "function"
    },
    {
      "inputs": [
        {
          "internalType": "address",
          "name": "newOwner_",
          "type": "address"
        }
      ],
      "name": "transferOwnership",
      "outputs": [],
      "stateMutability": "nonpayable",
      "type": "function"
    },
    {
      "inputs": [],
      "name": "vault",
      "outputs": [
        {
          "internalType": "address",
          "name": "",
          "type": "address"
        }
      ],
      "stateMutability": "view",
      "type": "function"
    },
    {
      "inputs": [
        {
          "internalType": "address",
          "name": "account_",
          "type": "address"
        },
        {
          "internalType": "uint256",
          "name": "amount_",
          "type": "uint256"
        }
      ],
      "name": "mint",
      "outputs": [],
      "stateMutability": "nonpayable",
      "type": "function"
    },
    {
      "inputs": [
        {
          "internalType": "uint256",
          "name": "amount",
          "type": "uint256"
        }
      ],
      "name": "burn",
      "outputs": [],
      "stateMutability": "nonpayable",
      "type": "function"
    },
    {
      "inputs": [
        {
          "internalType": "address",
          "name": "account_",
          "type": "address"
        },
        {
          "internalType": "uint256",
          "name": "amount_",
          "type": "uint256"
        }
      ],
      "name": "burnFrom",
      "outputs": [],
      "stateMutability": "nonpayable",
      "type": "function"
    },
    {
      "inputs": [
        {
          "internalType": "address",
          "name": "account_",
          "type": "address"
        },
        {
          "internalType": "uint256",
          "name": "amount_",
          "type": "uint256"
        }
      ],
      "name": "_burnFrom",
      "outputs": [],
      "stateMutability": "nonpayable",
      "type": "function"
    }
  ],
  "bytecode": "0x60806040523480156200001157600080fd5b50604080518082018252600d81526c14dc1958dd1c994811da185cdd609a1b60208083019182528351808501909452600584526411d21054d560da1b90840152815191929160099162000068916003919062000233565b5081516200007e90600490602085019062000233565b506005805460ff191660ff92909216919091179055504690507f8b73c3c69bb8fe3d512ecc4cf759cc79239f7b179b0ffacaa9a75d522b39400f620000c262000199565b805160209182012060408051808201825260018152603160f81b90840152805192830193909352918101919091527fc89efdaa54c0f20c7adf612882df0950f5a951637e0307cdcb4c672f298b8bc66060820152608081018290523060a082015260c00160408051601f19818403018152908290528051602090910120600755600880546001600160a01b0319163390811790915591506000907f8be0079c531659141344cd1fd0a4f28419497f9722a3daafe3b4186f6b6457e0908290a3600980546001600160a01b0319163317905562000316565b606060038054620001aa90620002d9565b80601f0160208091040260200160405190810160405280929190818152602001828054620001d890620002d9565b8015620002295780601f10620001fd5761010080835404028352916020019162000229565b820191906000526020600020905b8154815290600101906020018083116200020b57829003601f168201915b5050505050905090565b8280546200024190620002d9565b90600052602060002090601f016020900481019282620002655760008555620002b0565b82601f106200028057805160ff1916838001178555620002b0565b82800160010185558215620002b0579182015b82811115620002b057825182559160200191906001019062000293565b50620002be929150620002c2565b5090565b5b80821115620002be5760008155600101620002c3565b600181811c90821680620002ee57607f821691505b602082108114156200031057634e487b7160e01b600052602260045260246000fd5b50919050565b6112f480620003266000396000f3fe608060405234801561001057600080fd5b50600436106101585760003560e01c8063715018a6116100c3578063a457c2d71161007c578063a457c2d714610303578063a9059cbb14610316578063d505accf14610329578063dd62ed3e1461033c578063f2fde38b14610375578063fbfa77cf1461038857600080fd5b8063715018a61461027f57806379cc6790146102875780637ecebe001461029a5780638da5cb5b146102c357806395d89b41146102e8578063a22b35ce146102f057600080fd5b80633644e515116101155780633644e515146101ff578063395093511461020857806340c10f191461021b57806342966c68146102305780636817031b1461024357806370a082311461025657600080fd5b806306fdde031461015d578063095ea7b31461017b57806318160ddd1461019e57806323b872dd146101b057806330adf81f146101c3578063313ce567146101ea575b600080fd5b610165610399565b60405161017291906110fb565b60405180910390f35b61018e6101893660046110b8565b61042b565b6040519015158152602001610172565b6002545b604051908152602001610172565b61018e6101be366004611009565b610441565b6101a27f6e71edae12b1b97f4d1f60370fef10105fa2faae0126114a169c64845d6126c981565b60055460405160ff9091168152602001610172565b6101a260075481565b61018e6102163660046110b8565b6104aa565b61022e6102293660046110b8565b6104e0565b005b61022e61023e3660046110e2565b610559565b61018e610251366004610fbb565b610566565b6101a2610264366004610fbb565b6001600160a01b031660009081526020819052604090205490565b61022e6105b7565b61022e6102953660046110b8565b61062b565b6101a26102a8366004610fbb565b6001600160a01b031660009081526006602052604090205490565b6008546001600160a01b03165b6040516001600160a01b039091168152602001610172565b610165610635565b61022e6102fe3660046110b8565b610644565b61018e6103113660046110b8565b6106aa565b61018e6103243660046110b8565b6106f9565b61022e610337366004611045565b610706565b6101a261034a366004610fd6565b6001600160a01b03918216600090815260016020908152604080832093909416825291909152205490565b61022e610383366004610fbb565b61092f565b6009546001600160a01b03166102d0565b6060600380546103a8906111b4565b80601f01602080910402602001604051908101604052809291908181526020018280546103d4906111b4565b80156104215780601f106103f657610100808354040283529160200191610421565b820191906000526020600020905b81548152906001019060200180831161040457829003601f168201915b5050505050905090565b6000610438338484610a1a565b50600192915050565b600061044e848484610b3f565b6104a0843361049b8560405180606001604052806028815260200161124e602891396001600160a01b038a1660009081526001602090815260408083203384529091529020549190610cc2565b610a1a565b5060019392505050565b3360008181526001602090815260408083206001600160a01b0387168452909152812054909161043891859061049b9086610cfc565b6009546001600160a01b0316331461054b5760405162461bcd60e51b815260206004820152602360248201527f5661756c744f776e65643a2063616c6c6572206973206e6f74207468652056616044820152621d5b1d60ea1b60648201526084015b60405180910390fd5b6105558282610d62565b5050565b6105633382610e41565b50565b6008546000906001600160a01b031633146105935760405162461bcd60e51b815260040161054290611150565b50600980546001600160a01b0319166001600160a01b03831617905560015b919050565b6008546001600160a01b031633146105e15760405162461bcd60e51b815260040161054290611150565b6008546040516000916001600160a01b0316907f8be0079c531659141344cd1fd0a4f28419497f9722a3daafe3b4186f6b6457e0908390a3600880546001600160a01b0319169055565b6105558282610644565b6060600480546103a8906111b4565b600061068e82604051806060016040528060248152602001611276602491396001600160a01b03861660009081526001602090815260408083203384529091529020549190610cc2565b905061069b833383610a1a565b6106a58383610e41565b505050565b6000610438338461049b8560405180606001604052806025815260200161129a602591393360009081526001602090815260408083206001600160a01b038d1684529091529020549190610cc2565b6000610438338484610b3f565b834211156107565760405162461bcd60e51b815260206004820152601860248201527f5065726d69743a206578706972656420646561646c696e6500000000000000006044820152606401610542565b6001600160a01b0387811660008181526006602090815260408083205481517f6e71edae12b1b97f4d1f60370fef10105fa2faae0126114a169c64845d6126c98185015280830195909552948b166060850152608084018a905260a084019490945260c08084018990528451808503909101815260e08401855280519082012060075461190160f01b61010086015261010285015261012280850182905285518086039091018152610142850180875281519184019190912090849052610162850180875281905260ff89166101828601526101a285018890526101c2850187905294519094936001926101e2808301939192601f198301929081900390910190855afa15801561086b573d6000803e3d6000fd5b5050604051601f1901519150506001600160a01b038116158015906108a15750896001600160a01b0316816001600160a01b0316145b6108f75760405162461bcd60e51b815260206004820152602160248201527f5a65726f537761705065726d69743a20496e76616c6964207369676e617475726044820152606560f81b6064820152608401610542565b6001600160a01b038a16600090815260066020526040902061091890610f45565b6109238a8a8a610a1a565b50505050505050505050565b6008546001600160a01b031633146109595760405162461bcd60e51b815260040161054290611150565b6001600160a01b0381166109be5760405162461bcd60e51b815260206004820152602660248201527f4f776e61626c653a206e6577206f776e657220697320746865207a65726f206160448201526564647265737360d01b6064820152608401610542565b6008546040516001600160a01b038084169216907f8be0079c531659141344cd1fd0a4f28419497f9722a3daafe3b4186f6b6457e090600090a3600880546001600160a01b0319166001600160a01b0392909216919091179055565b6001600160a01b038316610a7c5760405162461bcd60e51b8152602060048201526024808201527f45524332303a20617070726f76652066726f6d20746865207a65726f206164646044820152637265737360e01b6064820152608401610542565b6001600160a01b038216610add5760405162461bcd60e51b815260206004820152602260248201527f45524332303a20617070726f766520746f20746865207a65726f206164647265604482015261737360f01b6064820152608401610542565b6001600160a01b0383811660008181526001602090815260408083209487168084529482529182902085905590518481527f8c5be1e5ebec7d5bd14f71427d1e84f3dd0314c0f7b2291e5b200ac8c7c3b92591015b60405180910390a3505050565b6001600160a01b038316610ba35760405162461bcd60e51b815260206004820152602560248201527f45524332303a207472616e736665722066726f6d20746865207a65726f206164604482015264647265737360d81b6064820152608401610542565b6001600160a01b038216610c055760405162461bcd60e51b815260206004820152602360248201527f45524332303a207472616e7366657220746f20746865207a65726f206164647260448201526265737360e81b6064820152608401610542565b610c4281604051806060016040528060268152602001611228602691396001600160a01b0386166000908152602081905260409020549190610cc2565b6001600160a01b038085166000908152602081905260408082209390935590841681522054610c719082610cfc565b6001600160a01b038381166000818152602081815260409182902094909455518481529092918616917fddf252ad1be2c89b69c2b068fc378daa952ba7f163c4a11628f55a4df523b3ef9101610b32565b60008184841115610ce65760405162461bcd60e51b815260040161054291906110fb565b506000610cf3848661119d565b95945050505050565b600080610d098385611185565b905083811015610d5b5760405162461bcd60e51b815260206004820152601b60248201527f536166654d6174683a206164646974696f6e206f766572666c6f7700000000006044820152606401610542565b9392505050565b6001600160a01b038216610db85760405162461bcd60e51b815260206004820152601f60248201527f45524332303a206d696e7420746f20746865207a65726f2061646472657373006044820152606401610542565b600254610dc59082610cfc565b6002556001600160a01b038216600090815260208190526040902054610deb9082610cfc565b6001600160a01b038316600081815260208181526040918290209390935551838152909130917fddf252ad1be2c89b69c2b068fc378daa952ba7f163c4a11628f55a4df523b3ef91015b60405180910390a35050565b6001600160a01b038216610ea15760405162461bcd60e51b815260206004820152602160248201527f45524332303a206275726e2066726f6d20746865207a65726f206164647265736044820152607360f81b6064820152608401610542565b610ede81604051806060016040528060228152602001611206602291396001600160a01b0385166000908152602081905260409020549190610cc2565b6001600160a01b038316600090815260208190526040902055600254610f049082610f62565b6002556040518181526000906001600160a01b038416907fddf252ad1be2c89b69c2b068fc378daa952ba7f163c4a11628f55a4df523b3ef90602001610e35565b6001816000016000828254610f5a9190611185565b909155505050565b6000610d5b83836040518060400160405280601e81526020017f536166654d6174683a207375627472616374696f6e206f766572666c6f770000815250610cc2565b80356001600160a01b03811681146105b257600080fd5b600060208284031215610fcd57600080fd5b610d5b82610fa4565b60008060408385031215610fe957600080fd5b610ff283610fa4565b915061100060208401610fa4565b90509250929050565b60008060006060848603121561101e57600080fd5b61102784610fa4565b925061103560208501610fa4565b9150604084013590509250925092565b600080600080600080600060e0888a03121561106057600080fd5b61106988610fa4565b965061107760208901610fa4565b95506040880135945060608801359350608088013560ff8116811461109b57600080fd5b9699959850939692959460a0840135945060c09093013592915050565b600080604083850312156110cb57600080fd5b6110d483610fa4565b946020939093013593505050565b6000602082840312156110f457600080fd5b5035919050565b600060208083528351808285015260005b818110156111285785810183015185820160400152820161110c565b8181111561113a576000604083870101525b50601f01601f1916929092016040019392505050565b6020808252818101527f4f776e61626c653a2063616c6c6572206973206e6f7420746865206f776e6572604082015260600190565b60008219821115611198576111986111ef565b500190565b6000828210156111af576111af6111ef565b500390565b600181811c908216806111c857607f821691505b602082108114156111e957634e487b7160e01b600052602260045260246000fd5b50919050565b634e487b7160e01b600052601160045260246000fdfe45524332303a206275726e20616d6f756e7420657863656564732062616c616e636545524332303a207472616e7366657220616d6f756e7420657863656564732062616c616e636545524332303a207472616e7366657220616d6f756e74206578636565647320616c6c6f77616e636545524332303a206275726e20616d6f756e74206578636565647320616c6c6f77616e636545524332303a2064656372656173656420616c6c6f77616e63652062656c6f77207a65726fa2646970667358221220a1c8665a3ebaff3f4ee0190f74dc2d59924751f25a1c7a9af6c86780a09110ed64736f6c63430008070033",
  "immutableReferences": {},
  "source": "/**\r\n\r\n    SPECTRE DAO\r\n\r\n    https://discord.gg/a6TSeRJGR9\r\n\r\n\r\n\r\n**/\r\n\r\n// SPDX-License-Identifier: AGPL-3.0-or-later\r\npragma solidity ^0.8.0;\r\n// import \"hardhat/console.sol\";\r\nimport \"@openzeppelin/contracts/utils/structs/EnumerableSet.sol\";\r\n\r\ninterface IERC20 {\r\n    /**\r\n     * @dev Returns the amount of tokens in existence.\r\n   */\r\n    function totalSupply() external view returns (uint256);\r\n\r\n    /**\r\n     * @dev Returns the amount of tokens owned by `account`.\r\n   */\r\n    function balanceOf(address account) external view returns (uint256);\r\n\r\n    /**\r\n     * @dev Moves `amount` tokens from the caller's account to `recipient`.\r\n   *\r\n   * Returns a boolean value indicating whether the operation succeeded.\r\n   *\r\n   * Emits a {Transfer} event.\r\n   */\r\n    function transfer(address recipient, uint256 amount) external returns (bool);\r\n\r\n    /**\r\n     * @dev Returns the remaining number of tokens that `spender` will be\r\n   * allowed to spend on behalf of `owner` through {transferFrom}. This is\r\n   * zero by default.\r\n   *\r\n   * This value changes when {approve} or {transferFrom} are called.\r\n   */\r\n    function allowance(address owner, address spender) external view returns (uint256);\r\n\r\n    /**\r\n     * @dev Sets `amount` as the allowance of `spender` over the caller's tokens.\r\n   *\r\n   * Returns a boolean value indicating whether the operation succeeded.\r\n   *\r\n   * IMPORTANT: Beware that changing an allowance with this method brings the risk\r\n   * that someone may use both the old and the new allowance by unfortunate\r\n   * transaction ordering. One possible solution to mitigate this race\r\n   * condition is to first reduce the spender's allowance to 0 and set the\r\n   * desired value afterwards:\r\n   * https://github.com/ethereum/EIPs/issues/20#issuecomment-263524729\r\n   *\r\n   * Emits an {Approval} event.\r\n   */\r\n    function approve(address spender, uint256 amount) external returns (bool);\r\n\r\n    /**\r\n     * @dev Moves `amount` tokens from `sender` to `recipient` using the\r\n   * allowance mechanism. `amount` is then deducted from the caller's\r\n   * allowance.\r\n   *\r\n   * Returns a boolean value indicating whether the operation succeeded.\r\n   *\r\n   * Emits a {Transfer} event.\r\n   */\r\n    function transferFrom(address sender, address recipient, uint256 amount) external returns (bool);\r\n\r\n    /**\r\n     * @dev Emitted when `value` tokens are moved from one account (`from`) to\r\n   * another (`to`).\r\n   *\r\n   * Note that `value` may be zero.\r\n   */\r\n    event Transfer(address indexed from, address indexed to, uint256 value);\r\n\r\n    /**\r\n     * @dev Emitted when the allowance of a `spender` for an `owner` is set by\r\n   * a call to {approve}. `value` is the new allowance.\r\n   */\r\n    event Approval(address indexed owner, address indexed spender, uint256 value);\r\n}\r\n\r\nlibrary SafeMath {\r\n\r\n    function add(uint256 a, uint256 b) internal pure returns (uint256) {\r\n        uint256 c = a + b;\r\n        require(c >= a, \"SafeMath: addition overflow\");\r\n\r\n        return c;\r\n    }\r\n\r\n    function sub(uint256 a, uint256 b) internal pure returns (uint256) {\r\n        return sub(a, b, \"SafeMath: subtraction overflow\");\r\n    }\r\n\r\n    function sub(uint256 a, uint256 b, string memory errorMessage) internal pure returns (uint256) {\r\n        require(b <= a, errorMessage);\r\n        uint256 c = a - b;\r\n\r\n        return c;\r\n    }\r\n\r\n    function mul(uint256 a, uint256 b) internal pure returns (uint256) {\r\n\r\n        if (a == 0) {\r\n            return 0;\r\n        }\r\n\r\n        uint256 c = a * b;\r\n        require(c / a == b, \"SafeMath: multiplication overflow\");\r\n\r\n        return c;\r\n    }\r\n\r\n    function div(uint256 a, uint256 b) internal pure returns (uint256) {\r\n        return div(a, b, \"SafeMath: division by zero\");\r\n    }\r\n\r\n    function div(uint256 a, uint256 b, string memory errorMessage) internal pure returns (uint256) {\r\n        require(b > 0, errorMessage);\r\n        uint256 c = a / b;\r\n        // assert(a == b * c + a % b); // There is no case in which this doesn't hold\r\n\r\n        return c;\r\n    }\r\n\r\n    function mod(uint256 a, uint256 b) internal pure returns (uint256) {\r\n        return mod(a, b, \"SafeMath: modulo by zero\");\r\n    }\r\n\r\n    function mod(uint256 a, uint256 b, string memory errorMessage) internal pure returns (uint256) {\r\n        require(b != 0, errorMessage);\r\n        return a % b;\r\n    }\r\n\r\n    function sqrrt(uint256 a) internal pure returns (uint c) {\r\n        if (a > 3) {\r\n            c = a;\r\n            uint b = add( div( a, 2), 1 );\r\n            while (b < c) {\r\n                c = b;\r\n                b = div( add( div( a, b ), b), 2 );\r\n            }\r\n        } else if (a != 0) {\r\n            c = 1;\r\n        }\r\n    }\r\n\r\n    function percentageAmount( uint256 total_, uint8 percentage_ ) internal pure returns ( uint256 percentAmount_ ) {\r\n        return div( mul( total_, percentage_ ), 1000 );\r\n    }\r\n\r\n    function substractPercentage( uint256 total_, uint8 percentageToSub_ ) internal pure returns ( uint256 result_ ) {\r\n        return sub( total_, div( mul( total_, percentageToSub_ ), 1000 ) );\r\n    }\r\n\r\n    function percentageOfTotal( uint256 part_, uint256 total_ ) internal pure returns ( uint256 percent_ ) {\r\n        return div( mul(part_, 100) , total_ );\r\n    }\r\n\r\n    function average(uint256 a, uint256 b) internal pure returns (uint256) {\r\n        // (a + b) / 2 can overflow, so we distribute\r\n        return (a / 2) + (b / 2) + ((a % 2 + b % 2) / 2);\r\n    }\r\n\r\n    function quadraticPricing( uint256 payment_, uint256 multiplier_ ) internal pure returns (uint256) {\r\n        return sqrrt( mul( multiplier_, payment_ ) );\r\n    }\r\n\r\n    function bondingCurve( uint256 supply_, uint256 multiplier_ ) internal pure returns (uint256) {\r\n        return mul( multiplier_, supply_ );\r\n    }\r\n}\r\n\r\nabstract contract ERC20 is IERC20 {\r\n\r\n    using SafeMath for uint256;\r\n\r\n    // TODO comment actual hash value.\r\n    bytes32 constant private ERC20TOKEN_ERC1820_INTERFACE_ID = keccak256( \"ERC20Token\" );\r\n\r\n    // Present in ERC777\r\n    mapping (address => uint256) internal _balances;\r\n\r\n    // Present in ERC777\r\n    mapping (address => mapping (address => uint256)) internal _allowances;\r\n\r\n    // Present in ERC777\r\n    uint256 internal _totalSupply;\r\n\r\n    // Present in ERC777\r\n    string internal _name;\r\n\r\n    // Present in ERC777\r\n    string internal _symbol;\r\n\r\n    // Present in ERC777\r\n    uint8 internal _decimals;\r\n\r\n    constructor (string memory name_, string memory symbol_, uint8 decimals_) {\r\n        _name = name_;\r\n        _symbol = symbol_;\r\n        _decimals = decimals_;\r\n    }\r\n\r\n    function name() public view returns (string memory) {\r\n        return _name;\r\n    }\r\n\r\n    function symbol() public view returns (string memory) {\r\n        return _symbol;\r\n    }\r\n\r\n    function decimals() public view returns (uint8) {\r\n        return _decimals;\r\n    }\r\n\r\n    function totalSupply() public view override returns (uint256) {\r\n        return _totalSupply;\r\n    }\r\n\r\n    function balanceOf(address account) public view virtual override returns (uint256) {\r\n        return _balances[account];\r\n    }\r\n\r\n    function transfer(address recipient, uint256 amount) public virtual override returns (bool) {\r\n        _transfer(msg.sender, recipient, amount);\r\n        return true;\r\n    }\r\n\r\n    function allowance(address owner, address spender) public view virtual override returns (uint256) {\r\n        return _allowances[owner][spender];\r\n    }\r\n\r\n    function approve(address spender, uint256 amount) public virtual override returns (bool) {\r\n        _approve(msg.sender, spender, amount);\r\n        return true;\r\n    }\r\n\r\n    function transferFrom(address sender, address recipient, uint256 amount) public virtual override returns (bool) {\r\n        _transfer(sender, recipient, amount);\r\n        _approve(sender, msg.sender, _allowances[sender][msg.sender].sub(amount, \"ERC20: transfer amount exceeds allowance\"));\r\n        return true;\r\n    }\r\n\r\n    function increaseAllowance(address spender, uint256 addedValue) public virtual returns (bool) {\r\n        _approve(msg.sender, spender, _allowances[msg.sender][spender].add(addedValue));\r\n        return true;\r\n    }\r\n\r\n    function decreaseAllowance(address spender, uint256 subtractedValue) public virtual returns (bool) {\r\n        _approve(msg.sender, spender, _allowances[msg.sender][spender].sub(subtractedValue, \"ERC20: decreased allowance below zero\"));\r\n        return true;\r\n    }\r\n\r\n    function _transfer(address sender, address recipient, uint256 amount) internal virtual {\r\n        require(sender != address(0), \"ERC20: transfer from the zero address\");\r\n        require(recipient != address(0), \"ERC20: transfer to the zero address\");\r\n\r\n        _beforeTokenTransfer(sender, recipient, amount);\r\n\r\n        _balances[sender] = _balances[sender].sub(amount, \"ERC20: transfer amount exceeds balance\");\r\n        _balances[recipient] = _balances[recipient].add(amount);\r\n        emit Transfer(sender, recipient, amount);\r\n    }\r\n\r\n    function _mint(address account_, uint256 amount_) internal virtual {\r\n        require(account_ != address(0), \"ERC20: mint to the zero address\");\r\n        _beforeTokenTransfer(address( this ), account_, amount_);\r\n        _totalSupply = _totalSupply.add(amount_);\r\n        _balances[account_] = _balances[account_].add(amount_);\r\n        emit Transfer(address( this ), account_, amount_);\r\n    }\r\n\r\n    function _burn(address account, uint256 amount) internal virtual {\r\n        require(account != address(0), \"ERC20: burn from the zero address\");\r\n\r\n        _beforeTokenTransfer(account, address(0), amount);\r\n\r\n        _balances[account] = _balances[account].sub(amount, \"ERC20: burn amount exceeds balance\");\r\n        _totalSupply = _totalSupply.sub(amount);\r\n        emit Transfer(account, address(0), amount);\r\n    }\r\n\r\n    function _approve(address owner, address spender, uint256 amount) internal virtual {\r\n        require(owner != address(0), \"ERC20: approve from the zero address\");\r\n        require(spender != address(0), \"ERC20: approve to the zero address\");\r\n\r\n        _allowances[owner][spender] = amount;\r\n        emit Approval(owner, spender, amount);\r\n    }\r\n\r\n    function _beforeTokenTransfer( address from_, address to_, uint256 amount_ ) internal virtual { }\r\n}\r\n\r\nlibrary Counters {\r\n    using SafeMath for uint256;\r\n\r\n    struct Counter {\r\n        uint256 _value; // default: 0\r\n    }\r\n\r\n    function current(Counter storage counter) internal view returns (uint256) {\r\n        return counter._value;\r\n    }\r\n\r\n    function increment(Counter storage counter) internal {\r\n        counter._value += 1;\r\n    }\r\n\r\n    function decrement(Counter storage counter) internal {\r\n        counter._value = counter._value.sub(1);\r\n    }\r\n}\r\n\r\ninterface IERC2612Permit {\r\n\r\n    function permit(\r\n        address owner,\r\n        address spender,\r\n        uint256 amount,\r\n        uint256 deadline,\r\n        uint8 v,\r\n        bytes32 r,\r\n        bytes32 s\r\n    ) external;\r\n\r\n    function nonces(address owner) external view returns (uint256);\r\n}\r\n\r\nabstract contract ERC20Permit is ERC20, IERC2612Permit {\r\n    using Counters for Counters.Counter;\r\n\r\n    mapping(address => Counters.Counter) private _nonces;\r\n\r\n    // keccak256(\"Permit(address owner,address spender,uint256 value,uint256 nonce,uint256 deadline)\");\r\n    bytes32 public constant PERMIT_TYPEHASH = 0x6e71edae12b1b97f4d1f60370fef10105fa2faae0126114a169c64845d6126c9;\r\n\r\n    bytes32 public DOMAIN_SEPARATOR;\r\n\r\n    constructor() {\r\n        uint256 chainID;\r\n        assembly {\r\n            chainID := chainid()\r\n        }\r\n\r\n        DOMAIN_SEPARATOR = keccak256(\r\n            abi.encode(\r\n                keccak256(\"EIP712Domain(string name,string version,uint256 chainId,address verifyingContract)\"),\r\n                keccak256(bytes(name())),\r\n                keccak256(bytes(\"1\")), // Version\r\n                chainID,\r\n                address(this)\r\n            )\r\n        );\r\n    }\r\n\r\n    function permit(\r\n        address owner,\r\n        address spender,\r\n        uint256 amount,\r\n        uint256 deadline,\r\n        uint8 v,\r\n        bytes32 r,\r\n        bytes32 s\r\n    ) public virtual override {\r\n        require(block.timestamp <= deadline, \"Permit: expired deadline\");\r\n\r\n        bytes32 hashStruct =\r\n        keccak256(abi.encode(PERMIT_TYPEHASH, owner, spender, amount, _nonces[owner].current(), deadline));\r\n\r\n        bytes32 _hash = keccak256(abi.encodePacked(uint16(0x1901), DOMAIN_SEPARATOR, hashStruct));\r\n\r\n        address signer = ecrecover(_hash, v, r, s);\r\n        require(signer != address(0) && signer == owner, \"ZeroSwapPermit: Invalid signature\");\r\n\r\n        _nonces[owner].increment();\r\n        _approve(owner, spender, amount);\r\n    }\r\n\r\n    function nonces(address owner) public view override returns (uint256) {\r\n        return _nonces[owner].current();\r\n    }\r\n}\r\n\r\ninterface IOwnable {\r\n    function owner() external view returns (address);\r\n\r\n    function renounceOwnership() external;\r\n\r\n    function transferOwnership( address newOwner_ ) external;\r\n}\r\n\r\ncontract Ownable is IOwnable {\r\n\r\n    address internal _owner;\r\n\r\n    event OwnershipTransferred(address indexed previousOwner, address indexed newOwner);\r\n\r\n    constructor () {\r\n        _owner = msg.sender;\r\n        emit OwnershipTransferred( address(0), _owner );\r\n    }\r\n\r\n    function owner() public view override returns (address) {\r\n        return _owner;\r\n    }\r\n\r\n    modifier onlyOwner() {\r\n        require( _owner == msg.sender, \"Ownable: caller is not the owner\" );\r\n        _;\r\n    }\r\n\r\n    function renounceOwnership() public virtual override onlyOwner() {\r\n        emit OwnershipTransferred( _owner, address(0) );\r\n        _owner = address(0);\r\n    }\r\n\r\n    function transferOwnership( address newOwner_ ) public virtual override onlyOwner() {\r\n        require( newOwner_ != address(0), \"Ownable: new owner is the zero address\");\r\n        emit OwnershipTransferred( _owner, newOwner_ );\r\n        _owner = newOwner_;\r\n    }\r\n}\r\n\r\ncontract VaultOwned is Ownable {\r\n\r\n    address internal _vault;\r\n    constructor() {\r\n        _vault = msg.sender;\r\n    }\r\n    function setVault(address vault_) external onlyOwner() returns (bool) {\r\n        _vault = vault_;\r\n\r\n        return true;\r\n    }\r\n\r\n    function vault() public view returns (address) {\r\n        return _vault;\r\n    }\r\n\r\n    modifier onlyVault() {\r\n        require(_vault == msg.sender, \"VaultOwned: caller is not the Vault\");\r\n        _;\r\n    }\r\n\r\n}\r\n\r\n\r\ncontract SpectreERC20Token is ERC20Permit, VaultOwned {\r\n\r\n    using SafeMath for uint256;\r\n\r\n    constructor() ERC20(\"Spectre Ghast\", \"GHAST\", 9) {\r\n    }\r\n\r\n    function mint(address account_, uint256 amount_) external onlyVault() {\r\n        _mint(account_, amount_);\r\n    }\r\n\r\n    function burn(uint256 amount) public virtual {\r\n        _burn(msg.sender, amount);\r\n    }\r\n\r\n    function burnFrom(address account_, uint256 amount_) public virtual {\r\n        _burnFrom(account_, amount_);\r\n    }\r\n\r\n    function _burnFrom(address account_, uint256 amount_) public virtual {\r\n        uint256 decreasedAllowance_ =\r\n        allowance(account_, msg.sender).sub(\r\n            amount_,\r\n            \"ERC20: burn amount exceeds allowance\"\r\n        );\r\n\r\n        _approve(account_, msg.sender, decreasedAllowance_);\r\n        _burn(account_, amount_);\r\n    }\r\n}\r\n",
  "sourcePath": "C:\\defi\\bitdeep\\spectre\\spectre-team-presale\\contracts\\SpectreERC20Token.sol",
  "compiler": {
    "name": "solc",
    "version": "0.8.7+commit.e28d00a7.Emscripten.clang"
  },
  "schemaVersion": "3.4.3",
  "updatedAt": "2021-11-28T12:27:55.230Z",
  "devdoc": {
    "kind": "dev",
    "methods": {
      "allowance(address,address)": {
        "details": "Returns the remaining number of tokens that `spender` will be allowed to spend on behalf of `owner` through {transferFrom}. This is zero by default. This value changes when {approve} or {transferFrom} are called."
      },
      "approve(address,uint256)": {
        "details": "Sets `amount` as the allowance of `spender` over the caller's tokens. Returns a boolean value indicating whether the operation succeeded. IMPORTANT: Beware that changing an allowance with this method brings the risk that someone may use both the old and the new allowance by unfortunate transaction ordering. One possible solution to mitigate this race condition is to first reduce the spender's allowance to 0 and set the desired value afterwards: https://github.com/ethereum/EIPs/issues/20#issuecomment-263524729 Emits an {Approval} event."
      },
      "balanceOf(address)": {
        "details": "Returns the amount of tokens owned by `account`."
      },
      "totalSupply()": {
        "details": "Returns the amount of tokens in existence."
      },
      "transfer(address,uint256)": {
        "details": "Moves `amount` tokens from the caller's account to `recipient`. Returns a boolean value indicating whether the operation succeeded. Emits a {Transfer} event."
      },
      "transferFrom(address,address,uint256)": {
        "details": "Moves `amount` tokens from `sender` to `recipient` using the allowance mechanism. `amount` is then deducted from the caller's allowance. Returns a boolean value indicating whether the operation succeeded. Emits a {Transfer} event."
      }
    },
    "version": 1
  },
  "userdoc": {
    "kind": "user",
    "methods": {},
    "version": 1
  }
}