{
  "contractName": "TeamPresale",
  "abi": [
    {
      "inputs": [
        {
          "internalType": "contract IERC20",
          "name": "token",
          "type": "address"
        }
      ],
      "stateMutability": "nonpayable",
      "type": "constructor"
    },
    {
      "anonymous": false,
      "inputs": [
        {
          "indexed": true,
          "internalType": "address",
          "name": "account",
          "type": "address"
        },
        {
          "indexed": false,
          "internalType": "uint256",
          "name": "amountTotal",
          "type": "uint256"
        },
        {
          "indexed": false,
          "internalType": "uint256",
          "name": "vested",
          "type": "uint256"
        }
      ],
      "name": "Claimed",
      "type": "event"
    },
    {
      "anonymous": false,
      "inputs": [
        {
          "indexed": true,
          "internalType": "address",
          "name": "previousOwner",
          "type": "address"
        },
        {
          "indexed": true,
          "internalType": "address",
          "name": "newOwner",
          "type": "address"
        }
      ],
      "name": "OwnershipTransferred",
      "type": "event"
    },
    {
      "anonymous": false,
      "inputs": [
        {
          "indexed": true,
          "internalType": "address",
          "name": "account",
          "type": "address"
        },
        {
          "indexed": false,
          "internalType": "uint256",
          "name": "amount",
          "type": "uint256"
        }
      ],
      "name": "Received",
      "type": "event"
    },
    {
      "anonymous": false,
      "inputs": [
        {
          "indexed": true,
          "internalType": "address",
          "name": "account",
          "type": "address"
        },
        {
          "indexed": false,
          "internalType": "uint256",
          "name": "releasable",
          "type": "uint256"
        }
      ],
      "name": "Released",
      "type": "event"
    },
    {
      "anonymous": false,
      "inputs": [
        {
          "indexed": true,
          "internalType": "address",
          "name": "account",
          "type": "address"
        },
        {
          "indexed": false,
          "internalType": "bool",
          "name": "status",
          "type": "bool"
        }
      ],
      "name": "Whitelist",
      "type": "event"
    },
    {
      "inputs": [],
      "name": "TOKEN",
      "outputs": [
        {
          "internalType": "contract IERC20",
          "name": "",
          "type": "address"
        }
      ],
      "stateMutability": "view",
      "type": "function"
    },
    {
      "inputs": [],
      "name": "owner",
      "outputs": [
        {
          "internalType": "address",
          "name": "",
          "type": "address"
        }
      ],
      "stateMutability": "view",
      "type": "function"
    },
    {
      "inputs": [],
      "name": "presaleEnd",
      "outputs": [
        {
          "internalType": "uint256",
          "name": "",
          "type": "uint256"
        }
      ],
      "stateMutability": "view",
      "type": "function"
    },
    {
      "inputs": [],
      "name": "presalePrice",
      "outputs": [
        {
          "internalType": "uint256",
          "name": "",
          "type": "uint256"
        }
      ],
      "stateMutability": "view",
      "type": "function"
    },
    {
      "inputs": [],
      "name": "presaleStart",
      "outputs": [
        {
          "internalType": "uint256",
          "name": "",
          "type": "uint256"
        }
      ],
      "stateMutability": "view",
      "type": "function"
    },
    {
      "inputs": [
        {
          "internalType": "address",
          "name": "",
          "type": "address"
        }
      ],
      "name": "released",
      "outputs": [
        {
          "internalType": "uint256",
          "name": "",
          "type": "uint256"
        }
      ],
      "stateMutability": "view",
      "type": "function"
    },
    {
      "inputs": [],
      "name": "renounceOwnership",
      "outputs": [],
      "stateMutability": "nonpayable",
      "type": "function"
    },
    {
      "inputs": [
        {
          "internalType": "address",
          "name": "",
          "type": "address"
        }
      ],
      "name": "tokens",
      "outputs": [
        {
          "internalType": "uint256",
          "name": "",
          "type": "uint256"
        }
      ],
      "stateMutability": "view",
      "type": "function"
    },
    {
      "inputs": [],
      "name": "totalProvided",
      "outputs": [
        {
          "internalType": "uint256",
          "name": "",
          "type": "uint256"
        }
      ],
      "stateMutability": "view",
      "type": "function"
    },
    {
      "inputs": [
        {
          "internalType": "address",
          "name": "newOwner",
          "type": "address"
        }
      ],
      "name": "transferOwnership",
      "outputs": [],
      "stateMutability": "nonpayable",
      "type": "function"
    },
    {
      "inputs": [
        {
          "internalType": "address",
          "name": "",
          "type": "address"
        }
      ],
      "name": "vest",
      "outputs": [
        {
          "internalType": "uint256",
          "name": "",
          "type": "uint256"
        }
      ],
      "stateMutability": "view",
      "type": "function"
    },
    {
      "inputs": [],
      "name": "vestStart",
      "outputs": [
        {
          "internalType": "uint256",
          "name": "",
          "type": "uint256"
        }
      ],
      "stateMutability": "view",
      "type": "function"
    },
    {
      "inputs": [
        {
          "internalType": "address",
          "name": "",
          "type": "address"
        }
      ],
      "name": "whitelist",
      "outputs": [
        {
          "internalType": "bool",
          "name": "",
          "type": "bool"
        }
      ],
      "stateMutability": "view",
      "type": "function"
    },
    {
      "stateMutability": "payable",
      "type": "receive"
    },
    {
      "inputs": [],
      "name": "getTimestamp",
      "outputs": [
        {
          "internalType": "uint256",
          "name": "",
          "type": "uint256"
        }
      ],
      "stateMutability": "view",
      "type": "function"
    },
    {
      "inputs": [],
      "name": "claim",
      "outputs": [],
      "stateMutability": "nonpayable",
      "type": "function"
    },
    {
      "inputs": [],
      "name": "release",
      "outputs": [],
      "stateMutability": "nonpayable",
      "type": "function"
    },
    {
      "inputs": [
        {
          "internalType": "address",
          "name": "user",
          "type": "address"
        },
        {
          "internalType": "uint64",
          "name": "timestamp",
          "type": "uint64"
        }
      ],
      "name": "vestedAmount",
      "outputs": [
        {
          "internalType": "uint256",
          "name": "",
          "type": "uint256"
        }
      ],
      "stateMutability": "view",
      "type": "function"
    },
    {
      "inputs": [],
      "name": "withdrawProvidedETH",
      "outputs": [],
      "stateMutability": "nonpayable",
      "type": "function"
    },
    {
      "inputs": [
        {
          "internalType": "uint256",
          "name": "_start",
          "type": "uint256"
        },
        {
          "internalType": "uint256",
          "name": "_end",
          "type": "uint256"
        }
      ],
      "name": "setStartEnd",
      "outputs": [],
      "stateMutability": "nonpayable",
      "type": "function"
    },
    {
      "inputs": [
        {
          "internalType": "uint256",
          "name": "_val",
          "type": "uint256"
        }
      ],
      "name": "setPrice",
      "outputs": [],
      "stateMutability": "nonpayable",
      "type": "function"
    },
    {
      "inputs": [
        {
          "internalType": "address",
          "name": "_wallet",
          "type": "address"
        },
        {
          "internalType": "bool",
          "name": "_status",
          "type": "bool"
        }
      ],
      "name": "setWhitelistStatus",
      "outputs": [],
      "stateMutability": "nonpayable",
      "type": "function"
    }
  ],
  "bytecode": "0x60c06040526801158e460913d0000060015560006005556176a760c91b60a05234801561002b57600080fd5b506040516110d83803806110d883398101604081905261004a916100de565b6100533361008e565b4260028190556100669062093a8061010e565b6003556100764262278d0061010e565b60045560601b6001600160601b031916608052610134565b600080546001600160a01b038381166001600160a01b0319831681178455604051919092169283917f8be0079c531659141344cd1fd0a4f28419497f9722a3daafe3b4186f6b6457e09190a35050565b6000602082840312156100f057600080fd5b81516001600160a01b038116811461010757600080fd5b9392505050565b6000821982111561012f57634e487b7160e01b600052601160045260246000fd5b500190565b60805160601c60a05160c01c610f64610174600039600081816109ef0152610a3f0152600081816103070152818161065701526107980152610f646000f3fe60806040526004361061012d5760003560e01c806382bfefc8116100ab5780639b19251a1161006f5780639b19251a146103c1578063de8801e514610401578063e43608d814610417578063e48603391461042c578063f2fde38b14610459578063f3c5f51e1461047957600080fd5b806382bfefc8146102f557806386d1a69f146103415780638da5cb5b1461035657806391b7f5ed146103745780639852595c1461039457600080fd5b8063229f3e29116100f2578063229f3e291461027f5780634e71d92d1461029557806370c71dd0146102aa578063715018a6146102c0578063810ec23b146102d557600080fd5b80620e7fa8146101eb57806302e3cb0b146102145780630c4242841461022a578063132184461461024c578063188ec3561461026c57600080fd5b366101e6573360009081526006602052604090205460ff166101885760405162461bcd60e51b815260206004820152600f60248201526e139bdd081dda1a5d195b1a5cdd1959608a1b60448201526064015b60405180910390fd5b336000908152600760205260408120805434928392916101a9908490610e6a565b909155505060405134815233907f88a5966d370b9919b20f3e2c13ff65706f196a4e32cc2c12bf57088f885258749060200160405180910390a250005b600080fd5b3480156101f757600080fd5b5061020160015481565b6040519081526020015b60405180910390f35b34801561022057600080fd5b5061020160055481565b34801561023657600080fd5b5061024a610245366004610d1e565b6104a6565b005b34801561025857600080fd5b5061024a610267366004610dc4565b610530565b34801561027857600080fd5b5042610201565b34801561028b57600080fd5b5061020160035481565b3480156102a157600080fd5b5061024a610565565b3480156102b657600080fd5b5061020160045481565b3480156102cc57600080fd5b5061024a6106be565b3480156102e157600080fd5b506102016102f0366004610d55565b6106f4565b34801561030157600080fd5b506103297f000000000000000000000000000000000000000000000000000000000000000081565b6040516001600160a01b03909116815260200161020b565b34801561034d57600080fd5b5061024a610734565b34801561036257600080fd5b506000546001600160a01b0316610329565b34801561038057600080fd5b5061024a61038f366004610dab565b6107fa565b3480156103a057600080fd5b506102016103af366004610d03565b60096020526000908152604090205481565b3480156103cd57600080fd5b506103f16103dc366004610d03565b60066020526000908152604090205460ff1681565b604051901515815260200161020b565b34801561040d57600080fd5b5061020160025481565b34801561042357600080fd5b5061024a610829565b34801561043857600080fd5b50610201610447366004610d03565b60076020526000908152604090205481565b34801561046557600080fd5b5061024a610474366004610d03565b610890565b34801561048557600080fd5b50610201610494366004610d03565b60086020526000908152604090205481565b6000546001600160a01b031633146104d05760405162461bcd60e51b815260040161017f90610e35565b6001600160a01b038216600081815260066020908152604091829020805460ff191685151590811790915591519182527f5a25e09a5dba33161281055e015f1279b6b10204d8f90dd56a8ce2b82322d43d91015b60405180910390a25050565b6000546001600160a01b0316331461055a5760405162461bcd60e51b815260040161017f90610e35565b600291909155600355565b60035442116105ab5760405162461bcd60e51b815260206004820152601260248201527110db185a5b481c195c9a5bd908195b99195960721b604482015260640161017f565b336000908152600760205260409020546105fc5760405162461bcd60e51b81526020600482015260126024820152714e6f20746f6b656e7320746f20636c61696d60701b604482015260640161017f565b3360009081526007602052604081205490610618600283610e82565b3360009081526008602052604081208054929350839290919061063c908490610e6a565b909155505033600081815260076020526040812055610686907f00000000000000000000000000000000000000000000000000000000000000006001600160a01b03169083610928565b604080518381526020810183905233917f987d620f307ff6b94d58743cb7a7509f24071586a77759b77c2d4e29f75a2f9a9101610524565b6000546001600160a01b031633146106e85760405162461bcd60e51b815260040161017f90610e35565b6106f2600061097f565b565b6001600160a01b038216600090815260096020908152604080832054600890925282205461072b9161072591610e6a565b836109cf565b90505b92915050565b3360008181526009602052604081205461074e83426106f4565b6107589190610ec3565b6001600160a01b038316600090815260096020526040812080549293508392909190610785908490610e6a565b909155506107bf90506001600160a01b037f0000000000000000000000000000000000000000000000000000000000000000168383610928565b816001600160a01b03167fb21fb52d5749b80f3182f8c6992236b5e5576681880914484d7f4c9b062e619e8260405161052491815260200190565b6000546001600160a01b031633146108245760405162461bcd60e51b815260040161017f90610e35565b600155565b6000546001600160a01b031633146108535760405162461bcd60e51b815260040161017f90610e35565b600080546040516001600160a01b03909116914780156108fc02929091818181858888f1935050505015801561088d573d6000803e3d6000fd5b50565b6000546001600160a01b031633146108ba5760405162461bcd60e51b815260040161017f90610e35565b6001600160a01b03811661091f5760405162461bcd60e51b815260206004820152602660248201527f4f776e61626c653a206e6577206f776e657220697320746865207a65726f206160448201526564647265737360d01b606482015260840161017f565b61088d8161097f565b604080516001600160a01b038416602482015260448082018490528251808303909101815260649091019091526020810180516001600160e01b031663a9059cbb60e01b17905261097a908490610a9b565b505050565b600080546001600160a01b038381166001600160a01b0319831681178455604051919092169283917f8be0079c531659141344cd1fd0a4f28419497f9722a3daafe3b4186f6b6457e09190a35050565b60006004548267ffffffffffffffff1610156109ed5750600061072e565b7f000000000000000000000000000000000000000000000000000000000000000067ffffffffffffffff16600454610a259190610e6a565b8267ffffffffffffffff161115610a3d57508161072e565b7f000000000000000000000000000000000000000000000000000000000000000067ffffffffffffffff166004548367ffffffffffffffff16610a809190610ec3565b610a8a9085610ea4565b610a949190610e82565b905061072e565b6000610af0826040518060400160405280602081526020017f5361666545524332303a206c6f772d6c6576656c2063616c6c206661696c6564815250856001600160a01b0316610b6d9092919063ffffffff16565b80519091501561097a5780806020019051810190610b0e9190610d8e565b61097a5760405162461bcd60e51b815260206004820152602a60248201527f5361666545524332303a204552433230206f7065726174696f6e20646964206e6044820152691bdd081cdd58d8d9595960b21b606482015260840161017f565b6060610b7c8484600085610b86565b90505b9392505050565b606082471015610be75760405162461bcd60e51b815260206004820152602660248201527f416464726573733a20696e73756666696369656e742062616c616e636520666f6044820152651c8818d85b1b60d21b606482015260840161017f565b843b610c355760405162461bcd60e51b815260206004820152601d60248201527f416464726573733a2063616c6c20746f206e6f6e2d636f6e7472616374000000604482015260640161017f565b600080866001600160a01b03168587604051610c519190610de6565b60006040518083038185875af1925050503d8060008114610c8e576040519150601f19603f3d011682016040523d82523d6000602084013e610c93565b606091505b5091509150610ca3828286610cae565b979650505050505050565b60608315610cbd575081610b7f565b825115610ccd5782518084602001fd5b8160405162461bcd60e51b815260040161017f9190610e02565b80356001600160a01b0381168114610cfe57600080fd5b919050565b600060208284031215610d1557600080fd5b61072b82610ce7565b60008060408385031215610d3157600080fd5b610d3a83610ce7565b91506020830135610d4a81610f20565b809150509250929050565b60008060408385031215610d6857600080fd5b610d7183610ce7565b9150602083013567ffffffffffffffff81168114610d4a57600080fd5b600060208284031215610da057600080fd5b8151610b7f81610f20565b600060208284031215610dbd57600080fd5b5035919050565b60008060408385031215610dd757600080fd5b50508035926020909101359150565b60008251610df8818460208701610eda565b9190910192915050565b6020815260008251806020840152610e21816040850160208701610eda565b601f01601f19169190910160400192915050565b6020808252818101527f4f776e61626c653a2063616c6c6572206973206e6f7420746865206f776e6572604082015260600190565b60008219821115610e7d57610e7d610f0a565b500190565b600082610e9f57634e487b7160e01b600052601260045260246000fd5b500490565b6000816000190483118215151615610ebe57610ebe610f0a565b500290565b600082821015610ed557610ed5610f0a565b500390565b60005b83811015610ef5578181015183820152602001610edd565b83811115610f04576000848401525b50505050565b634e487b7160e01b600052601160045260246000fd5b801515811461088d57600080fdfea264697066735822122034db53a4e479ae37cf2cbad91abd165d9dc8ecf13c8e248155ba85e0863d367b64736f6c63430008070033",
  "immutableReferences": {
    "2800": [
      {
        "length": 32,
        "start": 775
      },
      {
        "length": 32,
        "start": 1623
      },
      {
        "length": 32,
        "start": 1944
      }
    ],
    "2805": [
      {
        "length": 32,
        "start": 2543
      },
      {
        "length": 32,
        "start": 2623
      }
    ]
  },
  "source": "/**\n * SPDX-License-Identifier: GPL-3.0-or-later\n * Hegic\n * Copyright (C) 2020 Hegic Protocol\n *\n * This program is free software: you can redistribute it and/or modify\n * it under the terms of the GNU General Public License as published by\n * the Free Software Foundation, either version 3 of the License, or\n * (at your option) any later version.\n *\n * This program is distributed in the hope that it will be useful,\n * but WITHOUT ANY WARRANTY; without even the implied warranty of\n * MERCHANTABILITY or FITNESS FOR A PARTICULAR PURPOSE.  See the\n * GNU General Public License for more details.\n *\n * You should have received a copy of the GNU General Public License\n * along with this program.  If not, see <http://www.gnu.org/licenses/>.\n */\n\npragma solidity ^0.8.7;\n\nimport \"@openzeppelin/contracts/access/Ownable.sol\";\nimport \"@openzeppelin/contracts/token/ERC20/utils/SafeERC20.sol\";\nimport \"@openzeppelin/contracts/token/ERC20/IERC20.sol\";\n\n// import \"hardhat/console.sol\";\n\n/**\n * @author bitdeep\n * @title SPECTRE DAO Initial Team Offering\n * @notice some description\n */\ncontract TeamPresale is Ownable {\n    using SafeERC20 for IERC20;\n    event Claimed(address indexed account, uint amountTotal, uint vested);\n    event Released(address indexed account, uint releasable);\n    event Received(address indexed account, uint amount);\n    event Whitelist(address indexed account, bool status);\n\n    uint public presalePrice = 20 ether; // 20 FTM\n    uint public presaleStart;\n    uint public presaleEnd;\n    uint public vestStart;\n    uint public totalProvided = 0;\n    mapping(address => bool) public whitelist;\n    mapping(address => uint) public tokens;\n    mapping(address => uint) public vest;\n    mapping(address => uint) public released;\n    IERC20 public immutable TOKEN;\n    uint64 private immutable duration = 30 days * 6; // ~ 6 months\n\n    constructor(IERC20 token) {\n        presaleStart = block.timestamp;\n        presaleEnd = presaleStart + 7 days;\n        vestStart = block.timestamp + 30 days;\n        TOKEN = token;\n    }\n    receive() external payable {\n        // require(msg.value > 100000000000000000, \"Insufficient funds sent\");\n        require(whitelist[msg.sender], \"Not whitelisted\");\n        // require(presaleStart <= block.timestamp, \"The offering has not started yet\");\n        // require(block.timestamp <= presaleEnd, \"The offering has already ended\");\n        // totalProvided += msg.value;\n        // uint amount = (msg.value / 1e9) / presalePrice;\n        uint amount = msg.value;\n        // require(amount <= TOKEN.balanceOf(address(this)), \"Insufficient contract balance\");\n        tokens[msg.sender] += amount;\n        emit Received(msg.sender, msg.value);\n    }\n    function getTimestamp() public view returns(uint){\n        return block.timestamp;\n    }\n    function claim() external {\n        require(block.timestamp > presaleEnd, \"Claim period ended\");\n        require(tokens[msg.sender] > 0, \"No tokens to claim\");\n        uint amountTotal = tokens[msg.sender];\n\n        // only 50%\n        uint amount = amountTotal / 2;\n\n        // vest 50%\n        vest[msg.sender] += amount;\n        tokens[msg.sender] = 0;\n        TOKEN.safeTransfer(msg.sender, amount);\n        emit Claimed(msg.sender, amountTotal, amount);\n    }\n\n    function release() external {\n        address beneficiary = msg.sender;\n        uint256 releasable = vestedAmount(beneficiary, uint64(block.timestamp)) - released[beneficiary];\n        released[beneficiary] += releasable;\n        TOKEN.safeTransfer(beneficiary, releasable);\n        emit Released(beneficiary, releasable);\n    }\n\n    function vestedAmount(address user, uint64 timestamp) public view virtual returns (uint256) {\n        return _vestingSchedule(vest[user] + released[user], timestamp);\n    }\n\n    function _vestingSchedule(uint256 totalAllocation, uint64 timestamp) internal view virtual returns (uint256) {\n        if (timestamp < vestStart) {\n            return 0;\n        } else if (timestamp > vestStart + duration) {\n            return totalAllocation;\n        } else {\n            return (totalAllocation * (timestamp - vestStart)) / duration;\n        }\n    }\n\n    function withdrawProvidedETH() external onlyOwner {\n        payable(owner()).transfer(address(this).balance);\n    }\n\n    function setStartEnd(uint _start, uint _end) external onlyOwner {\n        presaleStart = _start;\n        presaleEnd = _end;\n    }\n\n    function setPrice(uint _val) external onlyOwner {\n        presalePrice = _val;\n    }\n\n    function setWhitelistStatus(address _wallet, bool _status) external onlyOwner {\n        whitelist[_wallet] = _status;\n        emit Whitelist(_wallet, _status);\n    }\n\n}\n",
  "sourcePath": "C:\\defi\\bitdeep\\spectre\\spectre-team-presale\\contracts\\TeamPresale.sol",
  "compiler": {
    "name": "solc",
    "version": "0.8.7+commit.e28d00a7.Emscripten.clang"
  },
  "schemaVersion": "3.4.3",
  "updatedAt": "2021-11-27T14:16:58.331Z",
  "devdoc": {
    "author": "bitdeep",
    "kind": "dev",
    "methods": {
      "owner()": {
        "details": "Returns the address of the current owner."
      },
      "renounceOwnership()": {
        "details": "Leaves the contract without owner. It will not be possible to call `onlyOwner` functions anymore. Can only be called by the current owner. NOTE: Renouncing ownership will leave the contract without an owner, thereby removing any functionality that is only available to the owner."
      },
      "transferOwnership(address)": {
        "details": "Transfers ownership of the contract to a new account (`newOwner`). Can only be called by the current owner."
      }
    },
    "title": "SPECTRE DAO Initial Team Offering",
    "version": 1
  },
  "userdoc": {
    "kind": "user",
    "methods": {},
    "notice": "some description",
    "version": 1
  }
}