{
  "contractName": "TeamPresale",
  "abi": [
    {
      "inputs": [
        {
          "internalType": "contract IERC20",
          "name": "token",
          "type": "address"
        }
      ],
      "stateMutability": "nonpayable",
      "type": "constructor"
    },
    {
      "anonymous": false,
      "inputs": [
        {
          "indexed": true,
          "internalType": "address",
          "name": "account",
          "type": "address"
        },
        {
          "indexed": false,
          "internalType": "uint256",
          "name": "amountTotal",
          "type": "uint256"
        },
        {
          "indexed": false,
          "internalType": "uint256",
          "name": "vested",
          "type": "uint256"
        }
      ],
      "name": "Claimed",
      "type": "event"
    },
    {
      "anonymous": false,
      "inputs": [
        {
          "indexed": true,
          "internalType": "address",
          "name": "previousOwner",
          "type": "address"
        },
        {
          "indexed": true,
          "internalType": "address",
          "name": "newOwner",
          "type": "address"
        }
      ],
      "name": "OwnershipTransferred",
      "type": "event"
    },
    {
      "anonymous": false,
      "inputs": [
        {
          "indexed": true,
          "internalType": "address",
          "name": "account",
          "type": "address"
        },
        {
          "indexed": false,
          "internalType": "uint256",
          "name": "amount",
          "type": "uint256"
        }
      ],
      "name": "Received",
      "type": "event"
    },
    {
      "anonymous": false,
      "inputs": [
        {
          "indexed": true,
          "internalType": "address",
          "name": "account",
          "type": "address"
        },
        {
          "indexed": false,
          "internalType": "uint256",
          "name": "releasable",
          "type": "uint256"
        }
      ],
      "name": "Released",
      "type": "event"
    },
    {
      "anonymous": false,
      "inputs": [
        {
          "indexed": true,
          "internalType": "address",
          "name": "account",
          "type": "address"
        },
        {
          "indexed": false,
          "internalType": "bool",
          "name": "status",
          "type": "bool"
        }
      ],
      "name": "Whitelist",
      "type": "event"
    },
    {
      "inputs": [],
      "name": "TOKEN",
      "outputs": [
        {
          "internalType": "contract IERC20",
          "name": "",
          "type": "address"
        }
      ],
      "stateMutability": "view",
      "type": "function"
    },
    {
      "inputs": [],
      "name": "owner",
      "outputs": [
        {
          "internalType": "address",
          "name": "",
          "type": "address"
        }
      ],
      "stateMutability": "view",
      "type": "function"
    },
    {
      "inputs": [],
      "name": "presaleEnd",
      "outputs": [
        {
          "internalType": "uint256",
          "name": "",
          "type": "uint256"
        }
      ],
      "stateMutability": "view",
      "type": "function"
    },
    {
      "inputs": [],
      "name": "presaleMaxAllocation",
      "outputs": [
        {
          "internalType": "uint256",
          "name": "",
          "type": "uint256"
        }
      ],
      "stateMutability": "view",
      "type": "function"
    },
    {
      "inputs": [],
      "name": "presalePrice",
      "outputs": [
        {
          "internalType": "uint256",
          "name": "",
          "type": "uint256"
        }
      ],
      "stateMutability": "view",
      "type": "function"
    },
    {
      "inputs": [],
      "name": "presaleStart",
      "outputs": [
        {
          "internalType": "uint256",
          "name": "",
          "type": "uint256"
        }
      ],
      "stateMutability": "view",
      "type": "function"
    },
    {
      "inputs": [
        {
          "internalType": "address",
          "name": "",
          "type": "address"
        }
      ],
      "name": "released",
      "outputs": [
        {
          "internalType": "uint256",
          "name": "",
          "type": "uint256"
        }
      ],
      "stateMutability": "view",
      "type": "function"
    },
    {
      "inputs": [],
      "name": "renounceOwnership",
      "outputs": [],
      "stateMutability": "nonpayable",
      "type": "function"
    },
    {
      "inputs": [
        {
          "internalType": "address",
          "name": "",
          "type": "address"
        }
      ],
      "name": "tokens",
      "outputs": [
        {
          "internalType": "uint256",
          "name": "",
          "type": "uint256"
        }
      ],
      "stateMutability": "view",
      "type": "function"
    },
    {
      "inputs": [],
      "name": "totalProvided",
      "outputs": [
        {
          "internalType": "uint256",
          "name": "",
          "type": "uint256"
        }
      ],
      "stateMutability": "view",
      "type": "function"
    },
    {
      "inputs": [
        {
          "internalType": "address",
          "name": "newOwner",
          "type": "address"
        }
      ],
      "name": "transferOwnership",
      "outputs": [],
      "stateMutability": "nonpayable",
      "type": "function"
    },
    {
      "inputs": [
        {
          "internalType": "address",
          "name": "",
          "type": "address"
        }
      ],
      "name": "vest",
      "outputs": [
        {
          "internalType": "uint256",
          "name": "",
          "type": "uint256"
        }
      ],
      "stateMutability": "view",
      "type": "function"
    },
    {
      "inputs": [],
      "name": "vestStart",
      "outputs": [
        {
          "internalType": "uint256",
          "name": "",
          "type": "uint256"
        }
      ],
      "stateMutability": "view",
      "type": "function"
    },
    {
      "inputs": [
        {
          "internalType": "address",
          "name": "",
          "type": "address"
        }
      ],
      "name": "whitelist",
      "outputs": [
        {
          "internalType": "bool",
          "name": "",
          "type": "bool"
        }
      ],
      "stateMutability": "view",
      "type": "function"
    },
    {
      "stateMutability": "payable",
      "type": "receive"
    },
    {
      "inputs": [],
      "name": "getTimestamp",
      "outputs": [
        {
          "internalType": "uint256",
          "name": "",
          "type": "uint256"
        }
      ],
      "stateMutability": "view",
      "type": "function"
    },
    {
      "inputs": [],
      "name": "claim",
      "outputs": [],
      "stateMutability": "nonpayable",
      "type": "function"
    },
    {
      "inputs": [],
      "name": "release",
      "outputs": [],
      "stateMutability": "nonpayable",
      "type": "function"
    },
    {
      "inputs": [
        {
          "internalType": "address",
          "name": "user",
          "type": "address"
        },
        {
          "internalType": "uint64",
          "name": "timestamp",
          "type": "uint64"
        }
      ],
      "name": "vestedAmount",
      "outputs": [
        {
          "internalType": "uint256",
          "name": "",
          "type": "uint256"
        }
      ],
      "stateMutability": "view",
      "type": "function"
    },
    {
      "inputs": [],
      "name": "withdrawProvidedETH",
      "outputs": [],
      "stateMutability": "nonpayable",
      "type": "function"
    },
    {
      "inputs": [
        {
          "internalType": "uint256",
          "name": "_start",
          "type": "uint256"
        },
        {
          "internalType": "uint256",
          "name": "_end",
          "type": "uint256"
        }
      ],
      "name": "setStartEnd",
      "outputs": [],
      "stateMutability": "nonpayable",
      "type": "function"
    },
    {
      "inputs": [
        {
          "internalType": "uint256",
          "name": "_val",
          "type": "uint256"
        }
      ],
      "name": "setPrice",
      "outputs": [],
      "stateMutability": "nonpayable",
      "type": "function"
    },
    {
      "inputs": [
        {
          "internalType": "address",
          "name": "_wallet",
          "type": "address"
        },
        {
          "internalType": "bool",
          "name": "_status",
          "type": "bool"
        }
      ],
      "name": "setWhitelistStatus",
      "outputs": [],
      "stateMutability": "nonpayable",
      "type": "function"
    },
    {
      "inputs": [],
      "name": "getChainId",
      "outputs": [
        {
          "internalType": "uint256",
          "name": "",
          "type": "uint256"
        }
      ],
      "stateMutability": "view",
      "type": "function"
    },
    {
      "inputs": [],
      "name": "resetVest",
      "outputs": [],
      "stateMutability": "nonpayable",
      "type": "function"
    }
  ],
  "bytecode": "0x60c06040526801158e460913d00000600155650b5e620f480060025560006006556176a760c91b60a0523480156200003657600080fd5b5060405162001482380380620014828339810160408190526200005991620000f6565b6200006433620000a6565b426003819055620000799062093a8062000128565b60048190556200008d9062278d0062000128565b60055560601b6001600160601b0319166080526200014f565b600080546001600160a01b038381166001600160a01b0319831681178455604051919092169283917f8be0079c531659141344cd1fd0a4f28419497f9722a3daafe3b4186f6b6457e09190a35050565b6000602082840312156200010957600080fd5b81516001600160a01b03811681146200012157600080fd5b9392505050565b600082198211156200014a57634e487b7160e01b600052601160045260246000fd5b500190565b60805160601c60a05160c01c6112eb6200019760003960008181610d340152610d8401526000818161032c015281816105a3015281816108f10152610add01526112eb6000f3fe60806040526004361061014e5760003560e01c806382bfefc8116100b65780639b19251a1161006f5780639b19251a14610672578063de8801e5146106b2578063e43608d8146106c8578063e4860339146106dd578063f2fde38b1461070a578063f3c5f51e1461072a57600080fd5b806382bfefc8146105915780638592dc95146105dd57806386d1a69f146105f25780638da5cb5b1461060757806391b7f5ed146106255780639852595c1461064557600080fd5b80633408e470116101085780633408e470146105085780634e71d92d1461051b5780635a3604ed1461053057806370c71dd014610546578063715018a61461055c578063810ec23b1461057157600080fd5b80620e7fa81461045e57806302e3cb0b146104875780630c4242841461049d57806313218446146104bf578063188ec356146104df578063229f3e29146104f257600080fd5b366104595767016345785d8a000034116101af5760405162461bcd60e51b815260206004820152601760248201527f496e73756666696369656e742066756e64732073656e7400000000000000000060448201526064015b60405180910390fd5b3360009081526007602052604090205460ff166101de5760405162461bcd60e51b81526004016101a690611193565b4260035411156102305760405162461bcd60e51b815260206004820181905260248201527f546865206f66666572696e6720686173206e6f7420737461727465642079657460448201526064016101a6565b60045442106102815760405162461bcd60e51b815260206004820152601e60248201527f546865206f66666572696e672068617320616c726561647920656e646564000060448201526064016101a6565b346006600082825461029391906111f1565b9091555050600154600090633b9aca00906102b634670de0b6b3a764000061122b565b6102c09190611209565b6102ca9190611209565b90506002548111156103175760405162461bcd60e51b81526020600482015260166024820152751b585e08185b1b1bd8d85d1a5bdb881c995858da195960521b60448201526064016101a6565b6040516370a0823160e01b81523060048201527f00000000000000000000000000000000000000000000000000000000000000006001600160a01b0316906370a082319060240160206040518083038186803b15801561037657600080fd5b505afa15801561038a573d6000803e3d6000fd5b505050506040513d601f19601f820116820180604052508101906103ae9190611109565b8111156103fd5760405162461bcd60e51b815260206004820152601d60248201527f496e73756666696369656e7420636f6e74726163742062616c616e636500000060448201526064016101a6565b336000908152600860205260408120805483929061041c9084906111f1565b909155505060405134815233907f88a5966d370b9919b20f3e2c13ff65706f196a4e32cc2c12bf57088f885258749060200160405180910390a250005b600080fd5b34801561046a57600080fd5b5061047460015481565b6040519081526020015b60405180910390f35b34801561049357600080fd5b5061047460065481565b3480156104a957600080fd5b506104bd6104b8366004611063565b610757565b005b3480156104cb57600080fd5b506104bd6104da366004611122565b6107e1565b3480156104eb57600080fd5b5042610474565b3480156104fe57600080fd5b5061047460045481565b34801561051457600080fd5b5046610474565b34801561052757600080fd5b506104bd610816565b34801561053c57600080fd5b5061047460025481565b34801561055257600080fd5b5061047460055481565b34801561056857600080fd5b506104bd610958565b34801561057d57600080fd5b5061047461058c36600461109a565b61098e565b34801561059d57600080fd5b506105c57f000000000000000000000000000000000000000000000000000000000000000081565b6040516001600160a01b03909116815260200161047e565b3480156105e957600080fd5b506104bd6109ce565b3480156105fe57600080fd5b506104bd610a4a565b34801561061357600080fd5b506000546001600160a01b03166105c5565b34801561063157600080fd5b506104bd6106403660046110f0565b610b3f565b34801561065157600080fd5b50610474610660366004611048565b600a6020526000908152604090205481565b34801561067e57600080fd5b506106a261068d366004611048565b60076020526000908152604090205460ff1681565b604051901515815260200161047e565b3480156106be57600080fd5b5061047460035481565b3480156106d457600080fd5b506104bd610b6e565b3480156106e957600080fd5b506104746106f8366004611048565b60086020526000908152604090205481565b34801561071657600080fd5b506104bd610725366004611048565b610bd5565b34801561073657600080fd5b50610474610745366004611048565b60096020526000908152604090205481565b6000546001600160a01b031633146107815760405162461bcd60e51b81526004016101a6906111bc565b6001600160a01b038216600081815260076020908152604091829020805460ff191685151590811790915591519182527f5a25e09a5dba33161281055e015f1279b6b10204d8f90dd56a8ce2b82322d43d91015b60405180910390a25050565b6000546001600160a01b0316331461080b5760405162461bcd60e51b81526004016101a6906111bc565b600391909155600455565b3360009081526007602052604090205460ff166108455760405162461bcd60e51b81526004016101a690611193565b336000908152600860205260409020546108965760405162461bcd60e51b81526020600482015260126024820152714e6f20746f6b656e7320746f20636c61696d60701b60448201526064016101a6565b33600090815260086020526040812054906108b2600283611209565b336000908152600960205260408120805492935083929091906108d69084906111f1565b909155505033600081815260086020526040812055610920907f00000000000000000000000000000000000000000000000000000000000000006001600160a01b03169083610c6d565b604080518381526020810183905233917f987d620f307ff6b94d58743cb7a7509f24071586a77759b77c2d4e29f75a2f9a91016107d5565b6000546001600160a01b031633146109825760405162461bcd60e51b81526004016101a6906111bc565b61098c6000610cc4565b565b6001600160a01b0382166000908152600a602090815260408083205460099092528220546109c5916109bf916111f1565b83610d14565b90505b92915050565b6000546001600160a01b031633146109f85760405162461bcd60e51b81526004016101a6906111bc565b46600114610a385760405162461bcd60e51b815260206004820152600d60248201526c37b7363c903a32b9ba1032b73b60991b60448201526064016101a6565b610a4562278d004261124a565b600555565b3360009081526007602052604090205460ff16610a795760405162461bcd60e51b81526004016101a690611193565b336000818152600a6020526040812054610a93834261098e565b610a9d919061124a565b6001600160a01b0383166000908152600a6020526040812080549293508392909190610aca9084906111f1565b90915550610b0490506001600160a01b037f0000000000000000000000000000000000000000000000000000000000000000168383610c6d565b816001600160a01b03167fb21fb52d5749b80f3182f8c6992236b5e5576681880914484d7f4c9b062e619e826040516107d591815260200190565b6000546001600160a01b03163314610b695760405162461bcd60e51b81526004016101a6906111bc565b600155565b6000546001600160a01b03163314610b985760405162461bcd60e51b81526004016101a6906111bc565b600080546040516001600160a01b03909116914780156108fc02929091818181858888f19350505050158015610bd2573d6000803e3d6000fd5b50565b6000546001600160a01b03163314610bff5760405162461bcd60e51b81526004016101a6906111bc565b6001600160a01b038116610c645760405162461bcd60e51b815260206004820152602660248201527f4f776e61626c653a206e6577206f776e657220697320746865207a65726f206160448201526564647265737360d01b60648201526084016101a6565b610bd281610cc4565b604080516001600160a01b038416602482015260448082018490528251808303909101815260649091019091526020810180516001600160e01b031663a9059cbb60e01b179052610cbf908490610de0565b505050565b600080546001600160a01b038381166001600160a01b0319831681178455604051919092169283917f8be0079c531659141344cd1fd0a4f28419497f9722a3daafe3b4186f6b6457e09190a35050565b60006005548267ffffffffffffffff161015610d32575060006109c8565b7f000000000000000000000000000000000000000000000000000000000000000067ffffffffffffffff16600554610d6a91906111f1565b8267ffffffffffffffff161115610d825750816109c8565b7f000000000000000000000000000000000000000000000000000000000000000067ffffffffffffffff166005548367ffffffffffffffff16610dc5919061124a565b610dcf908561122b565b610dd99190611209565b90506109c8565b6000610e35826040518060400160405280602081526020017f5361666545524332303a206c6f772d6c6576656c2063616c6c206661696c6564815250856001600160a01b0316610eb29092919063ffffffff16565b805190915015610cbf5780806020019051810190610e5391906110d3565b610cbf5760405162461bcd60e51b815260206004820152602a60248201527f5361666545524332303a204552433230206f7065726174696f6e20646964206e6044820152691bdd081cdd58d8d9595960b21b60648201526084016101a6565b6060610ec18484600085610ecb565b90505b9392505050565b606082471015610f2c5760405162461bcd60e51b815260206004820152602660248201527f416464726573733a20696e73756666696369656e742062616c616e636520666f6044820152651c8818d85b1b60d21b60648201526084016101a6565b843b610f7a5760405162461bcd60e51b815260206004820152601d60248201527f416464726573733a2063616c6c20746f206e6f6e2d636f6e747261637400000060448201526064016101a6565b600080866001600160a01b03168587604051610f969190611144565b60006040518083038185875af1925050503d8060008114610fd3576040519150601f19603f3d011682016040523d82523d6000602084013e610fd8565b606091505b5091509150610fe8828286610ff3565b979650505050505050565b60608315611002575081610ec4565b8251156110125782518084602001fd5b8160405162461bcd60e51b81526004016101a69190611160565b80356001600160a01b038116811461104357600080fd5b919050565b60006020828403121561105a57600080fd5b6109c58261102c565b6000806040838503121561107657600080fd5b61107f8361102c565b9150602083013561108f816112a7565b809150509250929050565b600080604083850312156110ad57600080fd5b6110b68361102c565b9150602083013567ffffffffffffffff8116811461108f57600080fd5b6000602082840312156110e557600080fd5b8151610ec4816112a7565b60006020828403121561110257600080fd5b5035919050565b60006020828403121561111b57600080fd5b5051919050565b6000806040838503121561113557600080fd5b50508035926020909101359150565b60008251611156818460208701611261565b9190910192915050565b602081526000825180602084015261117f816040850160208701611261565b601f01601f19169190910160400192915050565b6020808252600f908201526e139bdd081dda1a5d195b1a5cdd1959608a1b604082015260600190565b6020808252818101527f4f776e61626c653a2063616c6c6572206973206e6f7420746865206f776e6572604082015260600190565b6000821982111561120457611204611291565b500190565b60008261122657634e487b7160e01b600052601260045260246000fd5b500490565b600081600019048311821515161561124557611245611291565b500290565b60008282101561125c5761125c611291565b500390565b60005b8381101561127c578181015183820152602001611264565b8381111561128b576000848401525b50505050565b634e487b7160e01b600052601160045260246000fd5b8015158114610bd257600080fdfea264697066735822122040194cbb45e8af4be19ed9663abad30f94a02e6ee2335a9e21390ef83c38302264736f6c63430008070033",
  "immutableReferences": {
    "2803": [
      {
        "length": 32,
        "start": 812
      },
      {
        "length": 32,
        "start": 1443
      },
      {
        "length": 32,
        "start": 2289
      },
      {
        "length": 32,
        "start": 2781
      }
    ],
    "2808": [
      {
        "length": 32,
        "start": 3380
      },
      {
        "length": 32,
        "start": 3460
      }
    ]
  },
  "source": "/**\n * SPDX-License-Identifier: GPL-3.0-or-later\n * Hegic\n * Copyright (C) 2020 Hegic Protocol\n *\n * This program is free software: you can redistribute it and/or modify\n * it under the terms of the GNU General Public License as published by\n * the Free Software Foundation, either version 3 of the License, or\n * (at your option) any later version.\n *\n * This program is distributed in the hope that it will be useful,\n * but WITHOUT ANY WARRANTY; without even the implied warranty of\n * MERCHANTABILITY or FITNESS FOR A PARTICULAR PURPOSE.  See the\n * GNU General Public License for more details.\n *\n * You should have received a copy of the GNU General Public License\n * along with this program.  If not, see <http://www.gnu.org/licenses/>.\n */\n\npragma solidity ^0.8.7;\n\nimport \"@openzeppelin/contracts/access/Ownable.sol\";\nimport \"@openzeppelin/contracts/token/ERC20/utils/SafeERC20.sol\";\nimport \"@openzeppelin/contracts/token/ERC20/IERC20.sol\";\n\n// import \"hardhat/console.sol\";\n\n/**\n * @author bitdeep\n * @title SPECTRE DAO Initial Team Offering\n * @notice some description\n */\ncontract TeamPresale is Ownable {\n    using SafeERC20 for IERC20;\n    event Claimed(address indexed account, uint amountTotal, uint vested);\n    event Released(address indexed account, uint releasable);\n    event Received(address indexed account, uint amount);\n    event Whitelist(address indexed account, bool status);\n\n    uint public presalePrice = 20 ether; // 20 FTM\n    uint public presaleMaxAllocation = 12_500_000_000_000;\n    uint public presaleStart;\n    uint public presaleEnd;\n    uint public vestStart;\n    uint public totalProvided = 0;\n    mapping(address => bool) public whitelist;\n    mapping(address => uint) public tokens;\n    mapping(address => uint) public vest;\n    mapping(address => uint) public released;\n    IERC20 public immutable TOKEN;\n    uint64 private immutable duration = 30 days * 6; // ~ 6 months\n\n    constructor(IERC20 token) {\n        presaleStart = block.timestamp;\n        presaleEnd = presaleStart + 7 days;\n        vestStart = presaleEnd + 30 days;\n        TOKEN = token;\n    }\n\n    receive() external payable {\n        require(msg.value > 100000000000000000, \"Insufficient funds sent\");\n        require(whitelist[msg.sender], \"Not whitelisted\");\n        require(presaleStart <= block.timestamp, \"The offering has not started yet\");\n        require(block.timestamp < presaleEnd, \"The offering has already ended\");\n        totalProvided += msg.value;\n        uint amount = ((msg.value * 1e18) / presalePrice) / 1e9;\n        require(amount <= presaleMaxAllocation, \"max allocation reached\" );\n        require(amount <= TOKEN.balanceOf(address(this)), \"Insufficient contract balance\");\n        tokens[msg.sender] += amount;\n        emit Received(msg.sender, msg.value);\n    }\n\n    function getTimestamp() public view returns (uint){\n        return block.timestamp;\n    }\n\n    function claim() external {\n        require(whitelist[msg.sender], \"Not whitelisted\");\n        require(tokens[msg.sender] > 0, \"No tokens to claim\");\n        uint amountTotal = tokens[msg.sender];\n        uint amount = amountTotal / 2;\n        vest[msg.sender] += amount;\n        tokens[msg.sender] = 0;\n        TOKEN.safeTransfer(msg.sender, amount);\n        emit Claimed(msg.sender, amountTotal, amount);\n    }\n\n    function release() external {\n        require(whitelist[msg.sender], \"Not whitelisted\");\n        address beneficiary = msg.sender;\n        uint256 releasable = vestedAmount(beneficiary, uint64(block.timestamp)) - released[beneficiary];\n        released[beneficiary] += releasable;\n        TOKEN.safeTransfer(beneficiary, releasable);\n        emit Released(beneficiary, releasable);\n    }\n\n    function vestedAmount(address user, uint64 timestamp) public view virtual returns (uint256) {\n        return _vestingSchedule(vest[user] + released[user], timestamp);\n    }\n\n    function _vestingSchedule(uint256 totalAllocation, uint64 timestamp) internal view virtual returns (uint256) {\n        if (timestamp < vestStart) {\n            return 0;\n        } else if (timestamp > vestStart + duration) {\n            return totalAllocation;\n        } else {\n            return (totalAllocation * (timestamp - vestStart)) / duration;\n        }\n    }\n\n    function withdrawProvidedETH() external onlyOwner {\n        payable(owner()).transfer(address(this).balance);\n    }\n\n    function setStartEnd(uint _start, uint _end) external onlyOwner {\n        presaleStart = _start;\n        presaleEnd = _end;\n    }\n\n    function setPrice(uint _val) external onlyOwner {\n        presalePrice = _val;\n    }\n\n    function setWhitelistStatus(address _wallet, bool _status) external onlyOwner {\n        whitelist[_wallet] = _status;\n        emit Whitelist(_wallet, _status);\n    }\n\n    function getChainId() public view returns (uint) {\n        uint256 chainId;\n        assembly {chainId := chainid()}\n        return chainId;\n    }\n    // to test vest, must be commented\n    function resetVest() external onlyOwner {\n        // revert if not on test env\n        // ATTENTION: FTM is 250\n        require(getChainId() == 1, \"only test env\");\n        vestStart = block.timestamp - 30 days;\n    }\n}\n",
  "sourcePath": "C:\\defi\\bitdeep\\spectre\\spectre-team-presale\\contracts\\TeamPresale.sol",
  "compiler": {
    "name": "solc",
    "version": "0.8.7+commit.e28d00a7.Emscripten.clang"
  },
  "schemaVersion": "3.4.3",
  "updatedAt": "2021-11-27T21:29:16.696Z",
  "devdoc": {
    "author": "bitdeep",
    "kind": "dev",
    "methods": {
      "owner()": {
        "details": "Returns the address of the current owner."
      },
      "renounceOwnership()": {
        "details": "Leaves the contract without owner. It will not be possible to call `onlyOwner` functions anymore. Can only be called by the current owner. NOTE: Renouncing ownership will leave the contract without an owner, thereby removing any functionality that is only available to the owner."
      },
      "transferOwnership(address)": {
        "details": "Transfers ownership of the contract to a new account (`newOwner`). Can only be called by the current owner."
      }
    },
    "title": "SPECTRE DAO Initial Team Offering",
    "version": 1
  },
  "userdoc": {
    "kind": "user",
    "methods": {},
    "notice": "some description",
    "version": 1
  }
}