{
  "contractName": "TeamPresale",
  "abi": [
    {
      "inputs": [
        {
          "internalType": "contract IERC20",
          "name": "token",
          "type": "address"
        }
      ],
      "stateMutability": "nonpayable",
      "type": "constructor"
    },
    {
      "anonymous": false,
      "inputs": [
        {
          "indexed": true,
          "internalType": "address",
          "name": "account",
          "type": "address"
        },
        {
          "indexed": false,
          "internalType": "uint256",
          "name": "amountTotal",
          "type": "uint256"
        },
        {
          "indexed": false,
          "internalType": "uint256",
          "name": "vested",
          "type": "uint256"
        }
      ],
      "name": "Claimed",
      "type": "event"
    },
    {
      "anonymous": false,
      "inputs": [
        {
          "indexed": true,
          "internalType": "address",
          "name": "previousOwner",
          "type": "address"
        },
        {
          "indexed": true,
          "internalType": "address",
          "name": "newOwner",
          "type": "address"
        }
      ],
      "name": "OwnershipTransferred",
      "type": "event"
    },
    {
      "anonymous": false,
      "inputs": [
        {
          "indexed": true,
          "internalType": "address",
          "name": "account",
          "type": "address"
        },
        {
          "indexed": false,
          "internalType": "uint256",
          "name": "amount",
          "type": "uint256"
        }
      ],
      "name": "Received",
      "type": "event"
    },
    {
      "anonymous": false,
      "inputs": [
        {
          "indexed": true,
          "internalType": "address",
          "name": "account",
          "type": "address"
        },
        {
          "indexed": false,
          "internalType": "uint256",
          "name": "releasable",
          "type": "uint256"
        }
      ],
      "name": "Released",
      "type": "event"
    },
    {
      "anonymous": false,
      "inputs": [
        {
          "indexed": true,
          "internalType": "address",
          "name": "account",
          "type": "address"
        },
        {
          "indexed": false,
          "internalType": "bool",
          "name": "status",
          "type": "bool"
        }
      ],
      "name": "Whitelist",
      "type": "event"
    },
    {
      "inputs": [],
      "name": "TOKEN",
      "outputs": [
        {
          "internalType": "contract IERC20",
          "name": "",
          "type": "address"
        }
      ],
      "stateMutability": "view",
      "type": "function"
    },
    {
      "inputs": [],
      "name": "owner",
      "outputs": [
        {
          "internalType": "address",
          "name": "",
          "type": "address"
        }
      ],
      "stateMutability": "view",
      "type": "function"
    },
    {
      "inputs": [],
      "name": "presaleEnd",
      "outputs": [
        {
          "internalType": "uint256",
          "name": "",
          "type": "uint256"
        }
      ],
      "stateMutability": "view",
      "type": "function"
    },
    {
      "inputs": [],
      "name": "presalePrice",
      "outputs": [
        {
          "internalType": "uint256",
          "name": "",
          "type": "uint256"
        }
      ],
      "stateMutability": "view",
      "type": "function"
    },
    {
      "inputs": [],
      "name": "presaleStart",
      "outputs": [
        {
          "internalType": "uint256",
          "name": "",
          "type": "uint256"
        }
      ],
      "stateMutability": "view",
      "type": "function"
    },
    {
      "inputs": [
        {
          "internalType": "address",
          "name": "",
          "type": "address"
        }
      ],
      "name": "released",
      "outputs": [
        {
          "internalType": "uint256",
          "name": "",
          "type": "uint256"
        }
      ],
      "stateMutability": "view",
      "type": "function"
    },
    {
      "inputs": [],
      "name": "renounceOwnership",
      "outputs": [],
      "stateMutability": "nonpayable",
      "type": "function"
    },
    {
      "inputs": [
        {
          "internalType": "address",
          "name": "",
          "type": "address"
        }
      ],
      "name": "tokens",
      "outputs": [
        {
          "internalType": "uint256",
          "name": "",
          "type": "uint256"
        }
      ],
      "stateMutability": "view",
      "type": "function"
    },
    {
      "inputs": [],
      "name": "totalProvided",
      "outputs": [
        {
          "internalType": "uint256",
          "name": "",
          "type": "uint256"
        }
      ],
      "stateMutability": "view",
      "type": "function"
    },
    {
      "inputs": [
        {
          "internalType": "address",
          "name": "newOwner",
          "type": "address"
        }
      ],
      "name": "transferOwnership",
      "outputs": [],
      "stateMutability": "nonpayable",
      "type": "function"
    },
    {
      "inputs": [
        {
          "internalType": "address",
          "name": "",
          "type": "address"
        }
      ],
      "name": "vest",
      "outputs": [
        {
          "internalType": "uint256",
          "name": "",
          "type": "uint256"
        }
      ],
      "stateMutability": "view",
      "type": "function"
    },
    {
      "inputs": [],
      "name": "vestStart",
      "outputs": [
        {
          "internalType": "uint256",
          "name": "",
          "type": "uint256"
        }
      ],
      "stateMutability": "view",
      "type": "function"
    },
    {
      "inputs": [
        {
          "internalType": "address",
          "name": "",
          "type": "address"
        }
      ],
      "name": "whitelist",
      "outputs": [
        {
          "internalType": "bool",
          "name": "",
          "type": "bool"
        }
      ],
      "stateMutability": "view",
      "type": "function"
    },
    {
      "stateMutability": "payable",
      "type": "receive"
    },
    {
      "inputs": [],
      "name": "getTimestamp",
      "outputs": [
        {
          "internalType": "uint256",
          "name": "",
          "type": "uint256"
        }
      ],
      "stateMutability": "view",
      "type": "function"
    },
    {
      "inputs": [],
      "name": "claim",
      "outputs": [],
      "stateMutability": "nonpayable",
      "type": "function"
    },
    {
      "inputs": [],
      "name": "release",
      "outputs": [],
      "stateMutability": "nonpayable",
      "type": "function"
    },
    {
      "inputs": [
        {
          "internalType": "address",
          "name": "user",
          "type": "address"
        },
        {
          "internalType": "uint64",
          "name": "timestamp",
          "type": "uint64"
        }
      ],
      "name": "vestedAmount",
      "outputs": [
        {
          "internalType": "uint256",
          "name": "",
          "type": "uint256"
        }
      ],
      "stateMutability": "view",
      "type": "function"
    },
    {
      "inputs": [],
      "name": "withdrawProvidedETH",
      "outputs": [],
      "stateMutability": "nonpayable",
      "type": "function"
    },
    {
      "inputs": [
        {
          "internalType": "uint256",
          "name": "_start",
          "type": "uint256"
        },
        {
          "internalType": "uint256",
          "name": "_end",
          "type": "uint256"
        }
      ],
      "name": "setStartEnd",
      "outputs": [],
      "stateMutability": "nonpayable",
      "type": "function"
    },
    {
      "inputs": [
        {
          "internalType": "uint256",
          "name": "_val",
          "type": "uint256"
        }
      ],
      "name": "setPrice",
      "outputs": [],
      "stateMutability": "nonpayable",
      "type": "function"
    },
    {
      "inputs": [
        {
          "internalType": "address",
          "name": "_wallet",
          "type": "address"
        },
        {
          "internalType": "bool",
          "name": "_status",
          "type": "bool"
        }
      ],
      "name": "setWhitelistStatus",
      "outputs": [],
      "stateMutability": "nonpayable",
      "type": "function"
    },
    {
      "inputs": [],
      "name": "getChainId",
      "outputs": [
        {
          "internalType": "uint256",
          "name": "",
          "type": "uint256"
        }
      ],
      "stateMutability": "view",
      "type": "function"
    },
    {
      "inputs": [],
      "name": "resetVest",
      "outputs": [],
      "stateMutability": "nonpayable",
      "type": "function"
    }
  ],
  "bytecode": "0x60c06040526801158e460913d0000060015560006005556176a760c91b60a0523480156200002c57600080fd5b506040516200140d3803806200140d8339810160408190526200004f91620000ec565b6200005a336200009c565b4260028190556200006f9062093a806200011e565b6003819055620000839062278d006200011e565b60045560601b6001600160601b03191660805262000145565b600080546001600160a01b038381166001600160a01b0319831681178455604051919092169283917f8be0079c531659141344cd1fd0a4f28419497f9722a3daafe3b4186f6b6457e09190a35050565b600060208284031215620000ff57600080fd5b81516001600160a01b03811681146200011757600080fd5b9392505050565b600082198211156200014057634e487b7160e01b600052601160045260246000fd5b500190565b60805160601c60a05160c01c6112806200018d60003960008181610cc90152610d190152600081816102d701528181610538015281816108860152610a7201526112806000f3fe6080604052600436106101435760003560e01c806382bfefc8116100b65780639b19251a1161006f5780639b19251a14610607578063de8801e514610647578063e43608d81461065d578063e486033914610672578063f2fde38b1461069f578063f3c5f51e146106bf57600080fd5b806382bfefc8146105265780638592dc951461057257806386d1a69f146105875780638da5cb5b1461059c57806391b7f5ed146105ba5780639852595c146105da57600080fd5b8063229f3e2911610108578063229f3e291461049d5780633408e470146104b35780634e71d92d146104c657806370c71dd0146104db578063715018a6146104f1578063810ec23b1461050657600080fd5b80620e7fa81461040957806302e3cb0b146104325780630c42428414610448578063132184461461046a578063188ec3561461048a57600080fd5b366104045767016345785d8a000034116101a45760405162461bcd60e51b815260206004820152601760248201527f496e73756666696369656e742066756e64732073656e7400000000000000000060448201526064015b60405180910390fd5b3360009081526006602052604090205460ff166101d35760405162461bcd60e51b815260040161019b90611128565b4260025411156102255760405162461bcd60e51b815260206004820181905260248201527f546865206f66666572696e6720686173206e6f74207374617274656420796574604482015260640161019b565b60035442106102765760405162461bcd60e51b815260206004820152601e60248201527f546865206f66666572696e672068617320616c726561647920656e6465640000604482015260640161019b565b34600560008282546102889190611186565b9091555050600154600090633b9aca00906102ab34670de0b6b3a76400006111c0565b6102b5919061119e565b6102bf919061119e565b6040516370a0823160e01b81523060048201529091507f00000000000000000000000000000000000000000000000000000000000000006001600160a01b0316906370a082319060240160206040518083038186803b15801561032157600080fd5b505afa158015610335573d6000803e3d6000fd5b505050506040513d601f19601f82011682018060405250810190610359919061109e565b8111156103a85760405162461bcd60e51b815260206004820152601d60248201527f496e73756666696369656e7420636f6e74726163742062616c616e6365000000604482015260640161019b565b33600090815260076020526040812080548392906103c7908490611186565b909155505060405134815233907f88a5966d370b9919b20f3e2c13ff65706f196a4e32cc2c12bf57088f885258749060200160405180910390a250005b600080fd5b34801561041557600080fd5b5061041f60015481565b6040519081526020015b60405180910390f35b34801561043e57600080fd5b5061041f60055481565b34801561045457600080fd5b50610468610463366004610ff8565b6106ec565b005b34801561047657600080fd5b506104686104853660046110b7565b610776565b34801561049657600080fd5b504261041f565b3480156104a957600080fd5b5061041f60035481565b3480156104bf57600080fd5b504661041f565b3480156104d257600080fd5b506104686107ab565b3480156104e757600080fd5b5061041f60045481565b3480156104fd57600080fd5b506104686108ed565b34801561051257600080fd5b5061041f61052136600461102f565b610923565b34801561053257600080fd5b5061055a7f000000000000000000000000000000000000000000000000000000000000000081565b6040516001600160a01b039091168152602001610429565b34801561057e57600080fd5b50610468610963565b34801561059357600080fd5b506104686109df565b3480156105a857600080fd5b506000546001600160a01b031661055a565b3480156105c657600080fd5b506104686105d5366004611085565b610ad4565b3480156105e657600080fd5b5061041f6105f5366004610fdd565b60096020526000908152604090205481565b34801561061357600080fd5b50610637610622366004610fdd565b60066020526000908152604090205460ff1681565b6040519015158152602001610429565b34801561065357600080fd5b5061041f60025481565b34801561066957600080fd5b50610468610b03565b34801561067e57600080fd5b5061041f61068d366004610fdd565b60076020526000908152604090205481565b3480156106ab57600080fd5b506104686106ba366004610fdd565b610b6a565b3480156106cb57600080fd5b5061041f6106da366004610fdd565b60086020526000908152604090205481565b6000546001600160a01b031633146107165760405162461bcd60e51b815260040161019b90611151565b6001600160a01b038216600081815260066020908152604091829020805460ff191685151590811790915591519182527f5a25e09a5dba33161281055e015f1279b6b10204d8f90dd56a8ce2b82322d43d91015b60405180910390a25050565b6000546001600160a01b031633146107a05760405162461bcd60e51b815260040161019b90611151565b600291909155600355565b3360009081526006602052604090205460ff166107da5760405162461bcd60e51b815260040161019b90611128565b3360009081526007602052604090205461082b5760405162461bcd60e51b81526020600482015260126024820152714e6f20746f6b656e7320746f20636c61696d60701b604482015260640161019b565b336000908152600760205260408120549061084760028361119e565b3360009081526008602052604081208054929350839290919061086b908490611186565b9091555050336000818152600760205260408120556108b5907f00000000000000000000000000000000000000000000000000000000000000006001600160a01b03169083610c02565b604080518381526020810183905233917f987d620f307ff6b94d58743cb7a7509f24071586a77759b77c2d4e29f75a2f9a910161076a565b6000546001600160a01b031633146109175760405162461bcd60e51b815260040161019b90611151565b6109216000610c59565b565b6001600160a01b038216600090815260096020908152604080832054600890925282205461095a9161095491611186565b83610ca9565b90505b92915050565b6000546001600160a01b0316331461098d5760405162461bcd60e51b815260040161019b90611151565b466001146109cd5760405162461bcd60e51b815260206004820152600d60248201526c37b7363c903a32b9ba1032b73b60991b604482015260640161019b565b6109da62278d00426111df565b600455565b3360009081526006602052604090205460ff16610a0e5760405162461bcd60e51b815260040161019b90611128565b33600081815260096020526040812054610a288342610923565b610a3291906111df565b6001600160a01b038316600090815260096020526040812080549293508392909190610a5f908490611186565b90915550610a9990506001600160a01b037f0000000000000000000000000000000000000000000000000000000000000000168383610c02565b816001600160a01b03167fb21fb52d5749b80f3182f8c6992236b5e5576681880914484d7f4c9b062e619e8260405161076a91815260200190565b6000546001600160a01b03163314610afe5760405162461bcd60e51b815260040161019b90611151565b600155565b6000546001600160a01b03163314610b2d5760405162461bcd60e51b815260040161019b90611151565b600080546040516001600160a01b03909116914780156108fc02929091818181858888f19350505050158015610b67573d6000803e3d6000fd5b50565b6000546001600160a01b03163314610b945760405162461bcd60e51b815260040161019b90611151565b6001600160a01b038116610bf95760405162461bcd60e51b815260206004820152602660248201527f4f776e61626c653a206e6577206f776e657220697320746865207a65726f206160448201526564647265737360d01b606482015260840161019b565b610b6781610c59565b604080516001600160a01b038416602482015260448082018490528251808303909101815260649091019091526020810180516001600160e01b031663a9059cbb60e01b179052610c54908490610d75565b505050565b600080546001600160a01b038381166001600160a01b0319831681178455604051919092169283917f8be0079c531659141344cd1fd0a4f28419497f9722a3daafe3b4186f6b6457e09190a35050565b60006004548267ffffffffffffffff161015610cc75750600061095d565b7f000000000000000000000000000000000000000000000000000000000000000067ffffffffffffffff16600454610cff9190611186565b8267ffffffffffffffff161115610d1757508161095d565b7f000000000000000000000000000000000000000000000000000000000000000067ffffffffffffffff166004548367ffffffffffffffff16610d5a91906111df565b610d6490856111c0565b610d6e919061119e565b905061095d565b6000610dca826040518060400160405280602081526020017f5361666545524332303a206c6f772d6c6576656c2063616c6c206661696c6564815250856001600160a01b0316610e479092919063ffffffff16565b805190915015610c545780806020019051810190610de89190611068565b610c545760405162461bcd60e51b815260206004820152602a60248201527f5361666545524332303a204552433230206f7065726174696f6e20646964206e6044820152691bdd081cdd58d8d9595960b21b606482015260840161019b565b6060610e568484600085610e60565b90505b9392505050565b606082471015610ec15760405162461bcd60e51b815260206004820152602660248201527f416464726573733a20696e73756666696369656e742062616c616e636520666f6044820152651c8818d85b1b60d21b606482015260840161019b565b843b610f0f5760405162461bcd60e51b815260206004820152601d60248201527f416464726573733a2063616c6c20746f206e6f6e2d636f6e7472616374000000604482015260640161019b565b600080866001600160a01b03168587604051610f2b91906110d9565b60006040518083038185875af1925050503d8060008114610f68576040519150601f19603f3d011682016040523d82523d6000602084013e610f6d565b606091505b5091509150610f7d828286610f88565b979650505050505050565b60608315610f97575081610e59565b825115610fa75782518084602001fd5b8160405162461bcd60e51b815260040161019b91906110f5565b80356001600160a01b0381168114610fd857600080fd5b919050565b600060208284031215610fef57600080fd5b61095a82610fc1565b6000806040838503121561100b57600080fd5b61101483610fc1565b915060208301356110248161123c565b809150509250929050565b6000806040838503121561104257600080fd5b61104b83610fc1565b9150602083013567ffffffffffffffff8116811461102457600080fd5b60006020828403121561107a57600080fd5b8151610e598161123c565b60006020828403121561109757600080fd5b5035919050565b6000602082840312156110b057600080fd5b5051919050565b600080604083850312156110ca57600080fd5b50508035926020909101359150565b600082516110eb8184602087016111f6565b9190910192915050565b60208152600082518060208401526111148160408501602087016111f6565b601f01601f19169190910160400192915050565b6020808252600f908201526e139bdd081dda1a5d195b1a5cdd1959608a1b604082015260600190565b6020808252818101527f4f776e61626c653a2063616c6c6572206973206e6f7420746865206f776e6572604082015260600190565b6000821982111561119957611199611226565b500190565b6000826111bb57634e487b7160e01b600052601260045260246000fd5b500490565b60008160001904831182151516156111da576111da611226565b500290565b6000828210156111f1576111f1611226565b500390565b60005b838110156112115781810151838201526020016111f9565b83811115611220576000848401525b50505050565b634e487b7160e01b600052601160045260246000fd5b8015158114610b6757600080fdfea264697066735822122077717380abc76f55aab1643c1eb0f5a7c11bc55f5350410f96dac833f7a83fcb64736f6c63430008070033",
  "immutableReferences": {
    "2800": [
      {
        "length": 32,
        "start": 727
      },
      {
        "length": 32,
        "start": 1336
      },
      {
        "length": 32,
        "start": 2182
      },
      {
        "length": 32,
        "start": 2674
      }
    ],
    "2805": [
      {
        "length": 32,
        "start": 3273
      },
      {
        "length": 32,
        "start": 3353
      }
    ]
  },
  "source": "/**\n * SPDX-License-Identifier: GPL-3.0-or-later\n * Hegic\n * Copyright (C) 2020 Hegic Protocol\n *\n * This program is free software: you can redistribute it and/or modify\n * it under the terms of the GNU General Public License as published by\n * the Free Software Foundation, either version 3 of the License, or\n * (at your option) any later version.\n *\n * This program is distributed in the hope that it will be useful,\n * but WITHOUT ANY WARRANTY; without even the implied warranty of\n * MERCHANTABILITY or FITNESS FOR A PARTICULAR PURPOSE.  See the\n * GNU General Public License for more details.\n *\n * You should have received a copy of the GNU General Public License\n * along with this program.  If not, see <http://www.gnu.org/licenses/>.\n */\n\npragma solidity ^0.8.7;\n\nimport \"@openzeppelin/contracts/access/Ownable.sol\";\nimport \"@openzeppelin/contracts/token/ERC20/utils/SafeERC20.sol\";\nimport \"@openzeppelin/contracts/token/ERC20/IERC20.sol\";\n\n// import \"hardhat/console.sol\";\n\n/**\n * @author bitdeep\n * @title SPECTRE DAO Initial Team Offering\n * @notice some description\n */\ncontract TeamPresale is Ownable {\n    using SafeERC20 for IERC20;\n    event Claimed(address indexed account, uint amountTotal, uint vested);\n    event Released(address indexed account, uint releasable);\n    event Received(address indexed account, uint amount);\n    event Whitelist(address indexed account, bool status);\n\n    uint public presalePrice = 20 ether; // 20 FTM\n    uint public presaleStart;\n    uint public presaleEnd;\n    uint public vestStart;\n    uint public totalProvided = 0;\n    mapping(address => bool) public whitelist;\n    mapping(address => uint) public tokens;\n    mapping(address => uint) public vest;\n    mapping(address => uint) public released;\n    IERC20 public immutable TOKEN;\n    uint64 private immutable duration = 30 days * 6; // ~ 6 months\n\n    constructor(IERC20 token) {\n        presaleStart = block.timestamp;\n        presaleEnd = presaleStart + 7 days;\n        vestStart = presaleEnd + 30 days;\n        TOKEN = token;\n    }\n\n    receive() external payable {\n        require(msg.value > 100000000000000000, \"Insufficient funds sent\");\n        require(whitelist[msg.sender], \"Not whitelisted\");\n        require(presaleStart <= block.timestamp, \"The offering has not started yet\");\n        require(block.timestamp < presaleEnd, \"The offering has already ended\");\n        totalProvided += msg.value;\n        uint amount = ((msg.value * 1e18) / presalePrice) / 1e9;\n\n        require(amount <= TOKEN.balanceOf(address(this)), \"Insufficient contract balance\");\n        tokens[msg.sender] += amount;\n        emit Received(msg.sender, msg.value);\n    }\n\n    function getTimestamp() public view returns (uint){\n        return block.timestamp;\n    }\n\n    function claim() external {\n        require(whitelist[msg.sender], \"Not whitelisted\");\n        require(tokens[msg.sender] > 0, \"No tokens to claim\");\n        uint amountTotal = tokens[msg.sender];\n        uint amount = amountTotal / 2;\n        vest[msg.sender] += amount;\n        tokens[msg.sender] = 0;\n        TOKEN.safeTransfer(msg.sender, amount);\n        emit Claimed(msg.sender, amountTotal, amount);\n    }\n\n    function release() external {\n        require(whitelist[msg.sender], \"Not whitelisted\");\n        address beneficiary = msg.sender;\n        uint256 releasable = vestedAmount(beneficiary, uint64(block.timestamp)) - released[beneficiary];\n        released[beneficiary] += releasable;\n        TOKEN.safeTransfer(beneficiary, releasable);\n        emit Released(beneficiary, releasable);\n    }\n\n    function vestedAmount(address user, uint64 timestamp) public view virtual returns (uint256) {\n        return _vestingSchedule(vest[user] + released[user], timestamp);\n    }\n\n    function _vestingSchedule(uint256 totalAllocation, uint64 timestamp) internal view virtual returns (uint256) {\n        if (timestamp < vestStart) {\n            return 0;\n        } else if (timestamp > vestStart + duration) {\n            return totalAllocation;\n        } else {\n            return (totalAllocation * (timestamp - vestStart)) / duration;\n        }\n    }\n\n    function withdrawProvidedETH() external onlyOwner {\n        payable(owner()).transfer(address(this).balance);\n    }\n\n    function setStartEnd(uint _start, uint _end) external onlyOwner {\n        presaleStart = _start;\n        presaleEnd = _end;\n    }\n\n    function setPrice(uint _val) external onlyOwner {\n        presalePrice = _val;\n    }\n\n    function setWhitelistStatus(address _wallet, bool _status) external onlyOwner {\n        whitelist[_wallet] = _status;\n        emit Whitelist(_wallet, _status);\n    }\n\n    function getChainId() public view returns (uint) {\n        uint256 chainId;\n        assembly {chainId := chainid()}\n        return chainId;\n    }\n    // to test vest, must be commented\n    function resetVest() external onlyOwner {\n        // revert if not on test env\n        // ATTENTION: FTM is 250\n        require(getChainId() == 1, \"only test env\");\n        vestStart = block.timestamp - 30 days;\n    }\n}\n",
  "sourcePath": "C:\\defi\\bitdeep\\spectre\\TeamPresale\\contracts\\TeamPresale.sol",
  "compiler": {
    "name": "solc",
    "version": "0.8.7+commit.e28d00a7.Emscripten.clang"
  },
  "schemaVersion": "3.4.3",
  "updatedAt": "2021-11-27T20:21:17.297Z",
  "devdoc": {
    "author": "bitdeep",
    "kind": "dev",
    "methods": {
      "owner()": {
        "details": "Returns the address of the current owner."
      },
      "renounceOwnership()": {
        "details": "Leaves the contract without owner. It will not be possible to call `onlyOwner` functions anymore. Can only be called by the current owner. NOTE: Renouncing ownership will leave the contract without an owner, thereby removing any functionality that is only available to the owner."
      },
      "transferOwnership(address)": {
        "details": "Transfers ownership of the contract to a new account (`newOwner`). Can only be called by the current owner."
      }
    },
    "title": "SPECTRE DAO Initial Team Offering",
    "version": 1
  },
  "userdoc": {
    "kind": "user",
    "methods": {},
    "notice": "some description",
    "version": 1
  }
}